:100000000C9475020C94AD020C9492020C94920222
:100010000C949D190C94A9180C9470190C94161931
:100020000C9443190C947C180C94E9180C9429181E
:100030000C9492020C9492020C9492020C949202F0
:100040000C9492020C9492020C9492020C949202E0
:100050000C9492025B0B4B0B830B8C0B4D0B4F0BD9
:10006000530B830B570B590B550B630B790B5D0B24
:100070007D0B810B8A0B830B830B830B830B830B11
:10008000830B830B830B830B750B730B7B0B610B48
:100090007F0B850B710B830B830B830B830B830B04
:1000A000830B830B830B830B830B830B830B830BE0
:1000B000830B830B830B830B830B830B830B830BD0
:1000C000830B830B830B830B830B650B6D0B690B0E
:1000D000510B5F0B8C0B830B830B830B830B830BFD
:1000E000830B830B830B830B830B830B830B830BA0
:1000F000830B830B830B830B830B830B830B830B90
:10010000830B830B830B830B830B670B6F0B6B0BC7
:10011000770B04030904140353007900720079007B
:1001200061006E000A0345004D002E0037001201E9
:10013000100100000008424231E10001010200010B
:100140000000FC001C322123242B3433433B424B60
:100150003A31444D152D1B2C3C2A1D22351A161EF2
:1001600026252E363D3E46455A76660D294E555477
:100170005B5D5D4C520E41494A580506040C030B69
:10018000830A010978077C7E77706C7D71697A74C7
:100190006B7275774A7C7B795A69727A6B73746C6F
:1001A000757D7071612F370F081018202830384086
:1001B0004850575F000000000000000000000000F1
:1001C00000000000006D0051136A64672700000002
:1001D000F2F163625F000000000000000000000018
:1001E0000000000000001412111F14591127000014
:1001F0004D153B3423000032210000000050482BF5
:1002000040103A3830282018000000000000373F26
:100210005E00000000000000000000000000000080
:1002200000000000000000000000000000000000CE
:1002300000000000000000000000000000000000BE
:10024000464800004891900095969700A9AAADAC49
:100250006546494A4B4C4D4E52504F515458959615
:1002600097BDC0C1C2C3C4C5C6AFB0B1B2B3B6B703
:10027000BCBEBFC8C9CACBC70000494C4A4D4B4E93
:10028000A9AD65504F52515400004D4143524F208B
:100290007265636F7264206D6F6465400000407228
:1002A00065636F726420646F6E654000000000003B
:1002B00000004D4143524F2065726173650000009C
:1002C000000000000000646F6E6540000000000048
:1002D0000000000000000000000005010906A10167
:1002E00075019508050719E029E715002501810228
:1002F0009501750881039505750105081901290502
:10030000910295017503910395067508150025FF67
:100310000507190029FF8100C005010902A1018517
:10032000010901A10005091901290515002501751B
:1003300001950581027503950181030501093009C5
:10034000311581257F7508950281060938158125AB
:100350007F35004500750895018106050C0A3802B5
:100360001581257F750895018106C0C005010980AA
:10037000A1018502150125B7190129B7751095014D
:100380008100C0050C0901A10185031501269C020D
:1003900019012A9C02751095018100C009023B00D9
:1003A00002010080FA090400000103010100092193
:1003B00001010001223F000705810308000A09042A
:1003C0000100010300000009210101000122830056
:1003D0000705830308000A00000100080040000030
:1003E000010004000001000800200040008000001F
:1003F0000100044C4544207265636F7264206D6F88
:100400006465202D207075736820616E79206B659E
:100410007940004C4544207265636F726420646FBC
:100420006E654000000000000000000000000000B9
:10043000000000666164696E674000000000000013
:100440000000666164696E672D707573686F6E4039
:10045000007075736865642D77656967687440001E
:10046000707573686F6E400000000000000000703F
:100470007573686F66664000000000000000616CE4
:100480007761797340000000000000000063617034
:100490007340000000000000000000006F6666402E
:1004A000000000000000000000000046782D2D2D07
:1004B0002D00005061642D2D2D0000426173652DCB
:1004C0002D0000574153442D2D00004172726F776B
:1004D0002D00003D3D3D3D3D3D3D3D3D3D3D3D3DD6
:1004E0003D3D3D3D3D3D3D3D400011241FBECFE51E
:1004F000D8E0DEBFCDBF11E0A0E6B0E0EEE4FFE360
:1005000002C005900D92A23EB107D9F717E0A2EE06
:10051000B1E001C01D92AB39B107E1F70E9421168D
:100520000C94A51F0C940000A82FB92F80E090E038
:1005300041E050EA609530E009C02D9182279795FF
:10054000879510F084279527305EC8F36F5FA8F376
:100550000895EADF8D939D930895CF93CFB7CF93FE
:10056000C395839BE9F7839B09C0839B07C0839B4B
:1005700005C0839B03C0839B01C0A3C0DF93C091D0
:100580002505DD27C45DDA4F839B02C0DF91EBCFE9
:100590002F930F931F9300B32FEF03FB20F94F937B
:1005A0003F9310B34FEF012703FB21F93BE031C02C
:1005B0004E7F012F10B3216028C0102F4D7F226085
:1005C000000000B329C04B7F2460012F000010B34E
:1005D0002BC010B3477F28602AC04F7E00B3206134
:1005E0002CC04F7D10B320622FC04F7B00B320641E
:1005F00032C0422700B349934FEF0000102713FB8E
:1006000020F910B31C70C9F1297F91F2012703FB77
:1006100021F900B3237F89F2315058F1102713FBE1
:1006200022F910B3277E79F2012703FB23F92F7CEF
:1006300081F200B3102713FB24F92F7971F200C067
:1006400010B3012703FB25F92F7359F200C000B343
:10065000102713FB26F9223040F200C010B3012707
:1006600003FB27F9243028F64F77206810B30000E9
:10067000F9CF10E41ABF002719C03B503195C31BB6
:10068000D04010E41ABF0881033CF9F00B34E9F0C4
:10069000209123051981110F1213EDCF4A81441FB8
:1006A000093641F10D3211F0013E29F700932A0578
:1006B0003F914F911F910F912F91DF91CAB7C6FDC6
:1006C0004FCFCF91CFBFCF91189520912A052223EC
:1006D00079F3109128051123C1F53430C2F130931C
:1006E000280520932405109125053BE0311B30930C
:1006F00025052DC00091280501303CF50AE54F7015
:1007000049F43091600034FD24C000936000CCE0D7
:10071000D5E023C0433049F03091170534FD19C0AE
:1007200000931705C8E1D5E018C03091420534FDAB
:1007300010C000934205C3E4D5E00FC02795A8F48C
:100740005150A9F4220F0000F9CF4AE503C042ED51
:1007500001C0432FC4E1D0E032E011B31C60939A92
:1007600011BB02B320E41CE05F93012756E002BBFB
:10077000279520F4515021F4220FF9CF012756E09C
:1007800000003B5A02BBD0F2279528F4515029F4BF
:10079000220F0000F9CF012756E0279502BB20F475
:1007A000515021F4220FF9CF012756E0299133232C
:1007B00002BB21F6037F10912905110FC651D040CD
:1007C00002BB11F01093230510E41ABF086011B3A7
:1007D000137F402F437F5F9100C000C002BB11BB5D
:1007E00042BB66CF85B7826085BF8BB780648BBF05
:1007F0008BE480931805809343058AE58093170561
:100800008093420508951F93CF93DF93609128054D
:10081000635067FDB1C080912505CCE0D0E0C81BD6
:10082000D109C45DDA4F809124058D3209F091C061
:10083000683009F09FC083EC80930C058AE58093B3
:1008400060001092E2018881807629F0CE010E943A
:10085000970F282F6BC09A811092150589818823E4
:1008600021F41092160522E05AC0853019F49093B5
:10087000290554C08630E1F58B81813041F48EE248
:1008800091E0909327058093260522E12DC08230C8
:1008900029F18330F9F48A81882341F482E191E0DF
:1008A000909327058093260524E01EC0813041F4F3
:1008B00086E191E090932705809326052EE014C0F1
:1008C000823089F484E291E0909327058093260595
:1008D0002AE00AC0813211F0823229F4CE010E944E
:1008E0005D0F282F01C020E080E48093E2011EC04C
:1008F000883021F421E08BE295E013C0893019F4AF
:1009000090932B050BC08A3011F421E008C08B3086
:1009100029F48BE4809318058093430520E085E15A
:1009200095E0909327058093260509C02F3F39F461
:10093000888187FD2E8180E88093E20106C08F8147
:10094000882319F48E81821708F0822F809361002A
:1009500011C08091E20187FF0DC0CE010E945811A5
:100960008F3F21F48EE18093600004C0882311F052
:1009700010926100109228058091600084FF46C0AB
:10098000809161008F3F09F441C0182F893008F031
:1009900018E0811B8093610080910C0598E88927FD
:1009A00080930C05112321F1209126053091270514
:1009B0008091E20186FF0AC0912FF901ADE0B5E018
:1009C00084918D9331969150D9F708C0912FD90118
:1009D000EDE0F5E08D9181939150E1F7C901019629
:1009E0001150810F911D1F5F90932705809326055D
:1009F0008DE095E0612F0E94A902612F6C5F6C3041
:100A000019F08FEF809361006093600094E180B3F0
:100A10008C7031F49150D9F710922905109223056A
:100A2000DF91CF911F9108951F93CF93DF93DC0146
:100A3000162FEA01888184FF05C0898198E88927FB
:100A4000898302C08AE58883AE014E5F5F4F212F04
:100A5000FA018D91819321501216DCF3CA01612FA6
:100A60000E94A9021C5F1883DF91CF911F91089506
:100A700042E455E00E941405089547E155E00E94C4
:100A800014050895AF92BF92CF92DF92EF92FF923A
:100A90000F931F93482F42954695477050E04E5F45
:100AA0005F4F21E030E002C0220F331F4A95E2F78A
:100AB00024BB95B32095292325BB98E29A95F1F79D
:100AC000A9B226B3E0B2209530E040E050E0542FC8
:100AD000432F322F2227A094BB24CC24DD242A29A3
:100AE0003B294C295D29FF24E094F09490EFE92202
:100AF000FF2464E0F594E7946A95E1F7FF2400E0B1
:100B000010E08701FF24EE242E293F29402B512B92
:100B10008F7104C056954795379527958A95D2F7DA
:100B200021703070232B21F088E08093F40104C001
:100B30008091F401882311F083E002C08091E701E5
:100B40001F910F91FF90EF90DF90CF90BF90AF90EB
:100B50000895982F8091EA01282F21FD1CC08091D3
:100B6000620080FF07C0993311F496EA03C0963AF9
:100B700009F499E38091630080FF07C0983A11F46B
:100B800099EA03C0993A09F498EA20FF05C0993A16
:100B900011F09D3A09F490E0892F08958FE090E0DC
:100BA000609163000E94981F8EE090E06091620067
:100BB0000E94981F08950F931F93182F062F863AAF
:100BC00069F1873A20F4893309F085C007C0883A73
:100BD00009F444C0893A09F07EC05FC0662349F435
:100BE000809162008068809362001092EC01109204
:100BF000EB018091EB019091EC0101969093EC0157
:100C00008093EB0101978050944008F464C080E029
:100C100094E09093EC018093EB015DC0662349F46E
:100C2000809162008068809362001092EE011092C1
:100C3000ED018091ED019091EE0101969093EE010E
:100C40008093ED0101978050944008F444C080E007
:100C500094E09093EE018093ED013DC0662349F44A
:100C6000809163008068809363001092F00110927D
:100C7000EF018091EF019091F00101969093F001C6
:100C80008093EF0101978050944028F180E094E038
:100C90009093F0018093EF011EC0662349F4809188
:100CA00063008068809363001092F2011092F1015A
:100CB0008091F1019091F20101969093F20180935D
:100CC000F10101978050944030F080E094E09093DF
:100CD000F2018093F1018091EB019091EC01805041
:100CE000944091F48091ED019091EE0180509440F8
:100CF00059F49091620097FF07C081E098279F7791
:100D0000909362000E94CE058091F1019091F201D2
:100D10008050944091F48091EF019091F0018050C7
:100D2000944059F49091630097FF07C081E09827A1
:100D30009F77909363000E94CE05812F8C5C803357
:100D4000E0F4002321F41092C7051092C6058091AB
:100D5000C6059091C70501969093C7058093C60577
:100D600001978050944009F03EC0812F0E94C10D30
:100D70001092C7051092C60536C0812F8856843060
:100D8000D8F4002321F4109279061092780680910D
:100D9000780690917906019690937906809378066B
:100DA000019780509440F9F4812F0E94451D1092C4
:100DB00079061092780617C01237A9F4002321F49F
:100DC00010927106109270068091700690917106D3
:100DD000019690937106809370060197805094401D
:100DE00011F40E945C0D80E01F910F9108958F9285
:100DF0009F92AF92BF92CF92DF92EF92FF920F93AA
:100E00001F93CF93DF938091E3019091E401A09130
:100E1000E501B091E6010196A11DB11D8093E301AA
:100E20009093E401A093E501B093E6010197A10935
:100E3000B109805D9B4FA140B04060F080ED9BEF19
:100E4000A1E0B0E08093E3019093E401A093E50179
:100E5000B093E6018091E3019091E401A091E50156
:100E6000B091E601805D9B4FA140B04031F580918B
:100E7000E801882311F581E08093E80184E0809304
:100E80009707C3E0D0E00BE010E08091970790E077
:100E9000809FF001819FF00D909FF00D1124EC0FC9
:100EA000FD1FE458FB4F60818C2F90E070E00E94A2
:100EB000671B2196CA30D10541F708E5C02E06E030
:100EC000D02EBB24C2E0D0E011E0812E912CB8E2FC
:100ED000AB2EC4010C2E02C0880F991F0A94E2F7B2
:100EE00084BB25B38095822385BB8A2D8A95F1F733
:100EF000E9B226B380B3209530E040E050E0542FB3
:100F0000432F322F2227E094FF2400E010E02E2907
:100F10003F29402B512B90E080959095807F9070D9
:100F2000F4E095958795FA95E1F790E0A0E0B0E0C0
:100F3000DC0199278827282B392B4A2B5B2BF601BC
:100F400020833183428353832115310541055105A7
:100F5000B1F0F4E0BF2A1092E3011092E401109284
:100F6000E5011092E6018091E801813041F40E9490
:100F7000551C809195070E94EB1B1092E801219669
:100F800084E090E0C80ED91EC830D10509F0A1CF89
:100F90008B2DDF91CF911F910F91FF90EF90DF90FC
:100FA000CF90BF90AF909F908F9008950F931F9315
:100FB000982F8856843008F071C08093970790E08E
:100FC0000BE010E0809FF001819FF00D909FF00DED
:100FD0001124E458FB4F648184E090E070E00E94AB
:100FE000671B8091970790E0809FF001819FF00D33
:100FF000909FF00D1124E458FB4F658185E090E04F
:1010000070E00E94671B8091970790E0809FF0013D
:10101000819FF00D909FF00D1124E458FB4F6681E5
:1010200086E090E070E00E94671B8091970790E057
:10103000809FF001819FF00D909FF00D1124E458E6
:10104000FB4F678187E090E070E00E94671B809112
:10105000970790E0809FF001819FF00D909FF00D29
:101060001124E458FB4F608588E090E070E00E9416
:10107000671B8091970790E0809FF001819FF00DA2
:10108000909FF00D1124E458FB4F618589E090E0BA
:1010900070E00E94671B0E941F1A21C0892F8C5686
:1010A0008530E8F09C3C60F080918807882321F02F
:1010B000892F0E94C30C13C0892F0E94C10B0FC03F
:1010C000933751F42CE088E190E00FB6F894A8959E
:1010D00081BD0FBE21BDFFCF80E0923709F481E0D2
:1010E0001F910F910895982F8856843008F44AC0B4
:1010F0008450853008F446C0692F67586730F0F493
:101100006093E701E62FF0E0EE0FFF1FEE0FFF1FE9
:10111000E254FF4F0190F081E02DED58FF4FE49134
:101120001092F301E03519F481E08093F3018DE032
:1011300090E00E94981F0E94551C22C09C3C10F514
:10114000933761F40E94F4152CE088E190E00FB62B
:10115000F894A89581BD0FBE21BDFFCF923791F0C5
:10116000983921F48091EA0192E007C0993911F091
:1011700080E008958091EA0191E089278093EA0157
:1011800081E0089581E008952F923F924F925F92FF
:101190006F927F928F929F92AF92BF92CF92DF9287
:1011A000EF92FF920F931F93DF93CF93CDB7DEB7EC
:1011B00060970FB6F894DEBF0FBECDBF0E94F70652
:1011C000182F882339F48091F40118161CF48150EB
:1011D0008093F4018091E801882341F48091EA0131
:1011E0000E94911B8091E7010E94BE1B812F90E01D
:1011F0000E94EB1C0E94451A0E94B810E091E70182
:10120000F0E0EC58F94F80810E944205F8EC2F2E57
:10121000F5E03F2E28E536E038872F8319864424F1
:1012200055241E821D82A82EBB24AA0CBB1CAA0C0E
:10123000BB1C6EEB70E0A60EB71ED101ED90FD90C9
:101240000D911C911397EF81F885208131814281A6
:1012500053812D933D934D935C931397E4E1F0E01C
:101260004E9EC0014F9E900D5E9E900D1124BC01BC
:1012700060527A4F788B6F877EE4672E75E0772E09
:10128000680E791E88249924D801C701B695A795C0
:10129000979587958B879C87AD87BE87CA01B901D3
:1012A000969587957795679569837A838B839C83D9
:1012B000D501ED91FC916D817E81E60FF71FE80D60
:1012C000F91DD490DD2009F487C0CC24C394C22238
:1012D00020FF08C08091EA0181FD04C08D2D6FEFD1
:1012E0000E94DB057E2D71707A87E0FC08C0CC205F
:1012F00091F00E94E7198D2D0E94730809C0CC203F
:1013000051F48D2D60E00E94DB058D2D0E94D607E3
:10131000882309F061C08D2D0E94A905182F8758D8
:10132000873008F459C0815E8D3008F455C01C3CEC
:1013300008F052C0112309F44FC080918807882318
:1013400009F1AF85B8898C91CC2061F08F5F8C93C7
:10135000815084300CF440C0812F0E94091089878D
:1013600028E037C08150AF85B8898C938F5F843077
:101370002CF0812F0E94091089872EC0EF85F889F3
:1013800010822AC0FA85FF2331F4CC2049F0AF85C2
:10139000B8891C9205C0CC2019F4EF85F889108219
:1013A000AF85B8898C9187FD17C08F5F8C93815072
:1013B000843094F0CC2039F0812F61E00E941C121F
:1013C000F301108305C0D3018C9160E00E941C12D0
:1013D0002FEFEF85F88920830894811C911C6F857D
:1013E00078896F5F7F4F788B6F870894611C711CC1
:1013F00074E18716910449F0EB84FC840D851E8509
:1014000029813A814B815C813FCF0894411C511C5A
:1014100084E090E0280E391EAF81B8851496B88715
:10142000AF83ED81FE817496FE83ED83F6E04F1667
:10143000510409F002CF8985856060960FB6F89453
:10144000DEBF0FBECDBFCF91DF911F910F91FF90F7
:10145000EF90DF90CF90BF90AF909F908F907F9054
:101460006F905F904F903F902F900895CF93DF93B0
:10147000ECE7F6E0119227E0EC37F207D9F7CEEB74
:10148000D0E0FE0180E093E6A0E0B0E0819391938C
:10149000A193B19380509F4FAF4FBF4F20E0EE3CE0
:1014A000F207A1F720E432E006C0FC01E458F94F4E
:1014B000808182608083F901849190E02F5F3F4FAB
:1014C000009799F724E432E006C0FC01E458F94F94
:1014D000808184608083F901849190E02F5F3F4F89
:1014E000009799F728E432E006C0FC01E458F94F70
:1014F000808188608083F901849190E02F5F3F4F65
:10150000009799F72CE432E006C0FC01E458F94F4B
:10151000808181608083F901849190E02F5F3F4F4B
:10152000009799F72AE732E006C0FC01E458F94F2A
:10153000808180618083F901849190E02F5F3F4F2B
:10154000009799F7E8ECF5E011921192119211923F
:1015500026E0E831F207C1F7A4E7B6E01C92688103
:10156000798140E050E015C0F901E60FF71FE491E2
:10157000E43719F4892F822B8C932F5F3F4F24314E
:10158000310591F74F5F5F4F6C5E7F4F46305105DD
:1015900039F0942F9295990F907E20E030E0E4CFBF
:1015A0008C91882319F4809174068C93119624965B
:1015B00086E0A837B80791F6A8E5B6E020E030E06D
:1015C00044E150E06FEF0EC06193019684319105C4
:1015D000D9F71D921D921D921D922F5F3F4F26300D
:1015E000310561F0249FF001259FF00D349FF00D2F
:1015F0001124E052FA4F80E090E0E6CF8DE090E0D9
:101600000E94901F8093E701843010F01092E70150
:101610008FE090E00E94901F80936300813011F072
:10162000109263008EE090E00E94901F8093620011
:10163000813011F010926200DF91CF910895982FC0
:1016400081568A3118F4292F2D5510C0892F8154C5
:101650008A3120F4292F2D5332E009C0892F81537C
:10166000893010F020E002C0292F235130E0892F6B
:10167000992787FD9095A92FB92FFC01B097EF35D9
:10168000F10508F040C0E65DFF4FEE0FFF1F05902B
:10169000F491E02D09942EE139C021E237C022E215
:1016A00035C023E233C024E231C025E22FC026E258
:1016B0002DC027E22BC02CE22AC02DE228C02DE24B
:1016C00025C02EE224C02EE221C02FE220C02FE24E
:1016D0001DC020E31CC020E319C021E318C021E392
:1016E00015C028E214C023E312C023E30FC025E392
:1016F0000DC026E30CC026E309C027E308C027E39A
:1017000005C028E304C0222311F428E332E0832F2C
:10171000922F089527E2FBCF25E3F9CFE5EFF2E022
:1017200080E094E4A0E0B0E081939193A193B19321
:1017300080509F4FAF4FBF4F23E0E537F207A1F72F
:1017400080E008950895CF93DF93403024E452075A
:1017500020E0620720E0720778F488E10FB6F89481
:1017600081BD11BC0FBEC8EBDBE085E00E94BE1B53
:10177000CE010197F1F7F9CF0E94003EDF91CF91A2
:101780000895AF92BF92CF92DF92EF92FF920F93A4
:101790001F938C5C90E0FC01EE0FFF1FEE0FFF1F0C
:1017A000EB50FD4FC080D180E280F3808C599F4F79
:1017B0000E94901F813009F073C000E0BB2498E2C2
:1017C000A92E05C00894C11CD11CE11CF11C0430D9
:1017D00031F484E090E00E94471B00E005C00F5FF9
:1017E00084E090E00E94CA19F6011491112309F4D3
:1017F00057C0812F865A883040F5E12FF0E0EE0F78
:10180000FF1FE857F04020813181B2268B2D90E0F8
:1018100082239323892B19F0812F61E002C0812F4D
:1018200060E00E941C120BC08091870784FFFCCFF0
:101830008A2D8A95F1F7892F60E00E94A9120E94F3
:10184000AC11982F8C3F81F7BDCF812F61E00E94B2
:101850001C120BC08091870784FFFCCF8A2D8A95CC
:10186000F1F7892F60E00E94A9120E94AC11982F15
:101870008C3F81F7812F60E00E941C120BC0809189
:10188000870784FFFCCF8A2D8A95F1F7892F60E0C6
:101890000E94A9120E94AC11982F8C3F81F792CF21
:1018A0001F910F91FF90EF90DF90CF90BF90AF907E
:1018B0000895DF93CF93CDB7DEB728970FB6F8948E
:1018C000DEBF0FBECDBF982F8091170584FFFCCFE0
:1018D000FE01319688E0DF011D928A95E9F7998330
:1018E0006B83CF0168E00E943D0528960FB6F894FF
:1018F000DEBF0FBECDBFCF91DF91089580918807E5
:10190000882321F080E060E00E94590C08950F9335
:101910001F93282F192F80918807882329F0822F61
:10192000692F0E94590C2CC0892F61E00E941C1263
:1019300008E20BC08091870784FFFCCF802F8A9537
:10194000F1F7892F60E00E94A9120E94AC11982F34
:101950008C3F81F7812F60E00E941C1218E20BC0BF
:101960008091870784FFFCCF812F8A95F1F7892F1B
:1019700060E00E94A9120E94AC11982F8C3F81F761
:101980001F910F910895CF92DF92EF92FF920F93E4
:101990001F938C5C90E0FC01EE0FFF1FEE0FFF1F0A
:1019A000EB50FD4FE080F180028113818C599F4FF5
:1019B0000E94901F813009F049C0F7010894E11C92
:1019C000F11C1491CC2400E0DD24812F865A88304C
:1019D00058F5E12FF0E0EE0FFF1FE857F04080814F
:1019E000D826F70114911DC0043031F484E090E052
:1019F0000E94471B00E005C00F5F84E090E00E945A
:101A0000CA19A8951C1521F48D2D90E00E94870C11
:101A10008D2D912F0E94870CA895F7018491C12EDE
:101A2000182F0894E11CF11C812F855A8A3028F068
:101A3000112331F01C3CC0F2C8CF112309F0C5CFEF
:101A400080E090E00E94870C0E94551C1F910F912E
:101A5000FF90EF90DF90CF900895CF92DF92EF92BA
:101A6000FF920F931F93CF93DF936C01C0E0D0E000
:101A70000FC0812F0E941F0B082FF92E1E1511F485
:101A80000E947E0C802F9F2D0E94870C2196E12EB4
:101A9000F601EC0FFD1F1491112319F0C032D1058E
:101AA00041F70E947E0CDF91CF911F910F91FF9023
:101AB000EF90DF90CF900895CF93DF9382EB92E089
:101AC0000E942D0DC4E6D0E0A895CE0160E00E94F2
:101AD000981F8EEC90E00E942D0D2196C438D10500
:101AE00099F78EE090E060E80E94981F8FE090E008
:101AF00060E80E94981F86EC92E00E942D0DDF9115
:101B0000CF910895FF920F931F93182FF62E6623FF
:101B100019F401E382E002C00FE280E0902F0E94FE
:101B2000870CA895193AC1F01A3A38F4173A81F09F
:101B3000183A80F4163A89F409C01B3A49F01B3A66
:101B400028F01C3A39F01D3A41F406C006E005C001
:101B500006E103C004E001C00AE080E0902F0E948B
:101B6000870CA895FF2019F091E382E002C090E372
:101B700080E00E94870C0E947E0C1F910F91FF90C5
:101B800008952F923F924F925F926F927F928F9221
:101B90009F92AF92BF92CF92DF92EF92FF920F93FC
:101BA0001F93DF93CF93CDB7DEB763970FB6F8944B
:101BB000DEBF0FBECDBF8C5C8987E82FF0E0EE0F53
:101BC000FF1FEE0FFF1FEB50FD4F20813181388743
:101BD0002F83A89584E790E060E070E00E94DB0529
:101BE00024EF35E080E090E044E150E06FEF0BC07F
:101BF0006193E217F307E1F701969F012C5E3F4FD7
:101C00008630910551F0849FF001859FF00D949FDF
:101C1000F00D1124E052FA4FEBCF8AE892E00E94D7
:101C20002D0D1B8A1A8AEE24FF248701AF81B88507
:101C3000CD01A0E0B0E08E879F87A88BB98BA895D7
:101C40000E94F7068091E701E8ECF5E0FE83ED8362
:101C500028E536E03C832B83222433241A82198220
:101C6000682E7724660C771C660C771C8EEB90E050
:101C7000680E791EAD81BE812D913D914D915C9193
:101C80001397EB81FC8180809180A280B3808D923C
:101C90009D92AD92BC921397E4E1F0E02E9E60011C
:101CA0002F9ED00C3E9ED00C112480EE95E0C80EE5
:101CB000D91E44245524682D6170DA01C901B695F6
:101CC000A795979587958A879B87AC87BD87B6949C
:101CD000A79497948794D301ED91FC9189819A817F
:101CE000E80FF91FE40DF51D9491892F84508A3A6D
:101CF00008F0BBC020FD05C0662339F0D6011C9258
:101D000004C0662311F4F6011082D6018C9187FD80
:101D1000ACC08F5F8C93815084300CF4A6C06623D6
:101D200009F48EC0943769F0B1E0EB16F1040105B7
:101D3000110509F04AC0EA89FB89EF37F10509F07E
:101D400044C02A893B892B503E4FD9011C928EE911
:101D500092E00E942D0DA895F7E0EE0CFF1C001FED
:101D6000111FFA95D1F7EF81F885CF01A0E0B0E01F
:101D7000E80EF91E0A1F1B1F85EF91E0B801A701AD
:101D80000E94A30BA895F9858F2F90E08C599F4F47
:101D900061E00E94981FA89563960FB6F894DEBF85
:101DA0000FBECDBFCF91DF911F910F91FF90EF90AC
:101DB000DF90CF90BF90AF909F908F907F906F906B
:101DC0005F904F903F902F900895EA89FB89EB50E8
:101DD000FE4F9083892F865A883028F4892F61E03E
:101DE0000E94820D05C080E00E94870C0E947E0C3C
:101DF0002A893B892F373105E9F4B801A701E7E0CB
:101E0000440F551F661F771FEA95D1F78E859F8572
:101E1000A889B989480F591F6A1F7B1F85EF91E078
:101E20000E94A30B0894E11CF11C011D111D1B8ACB
:101E30001A8A18C0AA89BB891196BB8BAA8B12C0BB
:101E4000892F865A883070F4EA89FB89EB50FE4F5F
:101E50009083EA89FB893196FB8BEA8B892F60E0BE
:101E60000E94820DEFEFD601EC930894411C511CA7
:101E70000894C11CD11CF4E14F16510429F02A85A5
:101E80003B854C855D8517CF0894211C311C2D8125
:101E90003E812C5F3F4F3E832D838B819C81049636
:101EA0009C838B83A981BA815496BA83A983B6E0B7
:101EB0002B16310409F0DECEC2CEFC0183818132C3
:101EC00061F08232D9F0823081F58CE993E0909311
:101ED0002705809326058BE308958281882319F0D6
:101EE000813019F503C08EEA93E002C087EC93E0DD
:101EF000909327058093260589E008958481958134
:101F0000009719F0019789F408C08AED92E0909348
:101F10002705809326058FE3089589E193E0909348
:101F200027058093260583E8089580E00895FC0145
:101F300041E04093750329E733E030932705209370
:101F40002605808180768032D1F58181813011F43F
:101F500088E00895893061F48281938180509240B5
:101F600061F584819581892B41F54093760325C0E5
:101F7000823019F488E793E01AC08A3061F48381D3
:101F800080937803882319F04093630002C0109275
:101F9000630080E00895833031F48381882379F4ED
:101FA0001092E40008958B3051F484EE90E0909309
:101FB00027058093260581E008958FEF089580E03E
:101FC0000895582FDB01642F282F392FF90108C0FD
:101FD00090818C91981711F081E0089531961196B7
:101FE0008E2F851B8617A0F380E00895E9E7F3E0C4
:101FF000A1E8B3E090818C91981749F483E0E03830
:10200000F80711F480E0089531961196F3CF81E03E
:102010000895982F865A883068F4E92FF0E0EE0F83
:10202000FF1FE857F040808190917903892B8093BE
:1020300079039BC0892F8F5A8D3108F062C083E0ED
:1020400080937C07933B19F482EE90E072C0963B3C
:1020500019F489EE90E06DC0973B19F48AEE90E098
:1020600068C09F3A19F485EB90E063C0903B19F487
:1020700086EB90E05EC0913B19F487EB90E059C08D
:10208000973C19F48CEC90E054C0923B19F48DEC21
:1020900090E04FC09C3B19F483E891E04AC09D3B1F
:1020A00019F48AE891E045C09E3B19F482E991E079
:1020B00040C09F3B19F484E991E03BC0903C19F487
:1020C00081E292E036C0913C19F483E292E031C0A3
:1020D000923C19F484E292E02CC0933C19F485E21E
:1020E00092E027C0943C19F486E292E022C0953C2D
:1020F00019F487E292E01DC0963CB1F48AE292E0C6
:1021000018C0892F84598430D0F482E080937C07F2
:10211000953919F481E890E00CC0963919F482E8F9
:1021200090E007C0973919F080E090E002C083E8A2
:1021300090E090937E0780937D0784E017C08091A4
:102140008207883050F08BE793E061E070E046E072
:1021500050E00E94891F82E009C0E82FF0E0E758B4
:10216000FC4F90838F5F8093820780E081600895A9
:1021700082E08093820788E0E9E7F3E0DF011D92C7
:102180008A95E9F710927E0710927D0780E0089506
:10219000A9E7B3E0E1E8F3E088E001900D92815017
:1021A000E1F70895A1E8B3E0E9E7F3E088E0019002
:1021B0000D928150E1F70895EF92FF920F931F93D4
:1021C00010927503F8940E94F2038B9A80E69AEEBF
:1021D0000197F1F78B9878942FE088E190E00FB6A3
:1021E000F894A89581BD0FBE21BD00E0EE24E394D4
:1021F00001C00F2DA8950E9403040E94C408182F47
:102200008823C1F3809178038823C1F40E94F60FDC
:10221000882309F41E7F90917F0780917C0798178F
:1022200069F49091800780917D07981739F4909117
:10223000810780917E07981709F41B7F08B600FE7E
:102240000DC0E8BEF0907803FF2041F0053020F08B
:102250009BEFF92EF00E03C0116001C0F02E10FFAD
:1022600012C08091170584FF0EC089E793E068E0F3
:102270000E943D05A1E8B3E0E9E7F3E088E00190C2
:102280000D928150E1F712FFB4CF8091420584FF97
:10229000B0CF8CE797E063E00E943805AFE7B7E086
:1022A000ECE7F7E083E001900D928150E1F7A1CFD8
:1022B000FC0180917603882339F0613029F4808114
:1022C000809395070E94EB1B1092760381E008959E
:1022D000282F8F3F31F410928A0381E0809390037E
:1022E00008958E3F21F08D3F29F410928A031092B9
:1022F0009003089580919003882351F080918A0380
:10230000E82FF0E0E65AFB4F20838F5F80938A032B
:1023100080918E0390918F03019668EC70E00E948B
:10232000391FFC0190938F0380938E0380918C035F
:1023300090918D038E179F0759F4009719F487EC3D
:1023400090E001C0019790938F0380938E030895CE
:10235000EF56FC4F2083089520918C0330918D031C
:1023600080918E0390918F032817390711F480E034
:102370000895C901019668EC70E00E94391FFC01C4
:1023800090938D0380938C03EF56FC4F80810895CA
:1023900040E020918C0330918D0380918E039091C9
:1023A0008F032817390709F441E0842F089510920C
:1023B0008D0310928C0310928F0310928E03109253
:1023C0008A0310928B031092640410926504109299
:1023D0006604109267041092C8051092C905109205
:1023E000CA051092CB051092CC051092CD05109223
:1023F000CE051092CF051092D0051092D105109203
:10240000D2051092D3051092D4051092D5051092E2
:10241000D6051092D7051092D8051092D9051092C2
:10242000DA051092DB051092DC051092DD051092A2
:10243000DE051092DF0508951F93CF93DF93982F49
:10244000282F30E0F901E05CFE4F1491662309F477
:102450004EC0809359041092640410926504109247
:1024600066041092670410928507E901C458D94F99
:10247000888181FF2EC0963421F0983409F065C020
:102480000EC08FEF0E94681180EE0E94681182E1F9
:102490000E94681180EE0E9468118CE724C08DEFC5
:1024A0000E94681181EE0E94681184E10E94681107
:1024B00087E70E94681181EE0E94681180EF0E94F8
:1024C000681184E10E94681180EF0E94681187E71B
:1024D00037C08FEF0E946811888180FF03C080EEB3
:1024E0000E946811812F0E9468118EEF29C080918F
:1024F0005904891711F410928A03E92FF0E0E45887
:10250000F94F808181FF13C09634F9F480EE0E9468
:10251000681180EF0E9468118CE70E94681180EEBC
:102520000E94681180EF0E94681182E109C080FF5B
:1025300003C080EE0E94681180EF0E946811812F15
:102540000E9468118CEF0E946811DF91CF911F915A
:1025500008951F93162F8E3F11F0809384070E94D9
:10256000A714109385071F910895EF92FF920F9380
:102570001F9380918507843009F4E1C0853030F4E1
:10258000882371F0833009F0EAC0D7C0883009F49D
:10259000DBC08C3009F45DC0853009F0E0C0D2C0EA
:1025A00020918C0330918D0380918E0390918F0345
:1025B0002817390711F40E94C4080E94AC11182F83
:1025C0008C3F09F4CDC0882361F060E00E94A9121D
:1025D00010926404109265041092660410926704CD
:1025E000BFC080918A03882309F4BAC08091640433
:1025F00090916504A0916604B09167040196A11DB5
:10260000B11D8093640490936504A0936604B09315
:1026100067042091E50062E3269F900111242C5964
:102620003F4F442737FD4095542F82179307A40747
:10263000B5070CF495C010926404109265041092D2
:1026400066041092670410928B038CE080938507D8
:1026500087C080918B03882311F40E94C408809165
:102660008A038823C1F020918C0330918D038091DF
:102670008E0390918F032817390769F480916404C1
:1026800090916504A0916604B09167040197A1053B
:10269000B10561F40FC01092850710926404109286
:1026A0006504109266041092670459C080918B03F0
:1026B0008823A9F090918B03E92FF0E0E65AFB4FB5
:1026C00080819F5F90938B036CE00E94A9126091C0
:1026D0008A0380918B030E94191F90938B03E090D3
:1026E0006404F090650400916604109167040894F6
:1026F000E11CF11C011D111D6091E6007091E700C5
:102700008091E8009091E9002AE030E040E050E05C
:102710000E94FA1E9B01AC012D5F3F4F4F4F5F4F50
:10272000C801B7010E946E1F609364047093650432
:10273000809366049093670412C082E00DC08BEA18
:1027400065E00BC083E808C00E94D71180E00E94BA
:10275000A61C0E94551C8AEA60E00E94A91210E0A3
:10276000812F90E01F910F91FF90EF9008951F939C
:102770000E94B614182F60918507623099F063307B
:1027800020F4613009F06CC007C0663009F448C01D
:10279000673009F065C00FC0853F09F49FC08AEF1C
:1027A00061E09EC00E94D711112311F060E001C0CA
:1027B00063E08AEF95C0682F70E0CB01807690705F
:1027C000A5E095958795AA95E1F78093E500AB0183
:1027D00048715070F3E055954795FA95E1F780E020
:1027E00090E021E030E003C0220F331F01968417F0
:1027F0009507D4F367707070269FC001279F900DD6
:10280000369F900D1124AA2797FDA095BA2F80938B
:10281000E6009093E700A093E800B093E9005EC063
:102820002091950780FF02C0246001C02B7F209378
:1028300095072091950781FF02C0216001C02E7F7E
:10284000209395072091950782FF02C0226001C066
:102850002D7F20939507809195070E94EB1B3EC02A
:10286000133F41F1143F60F41E3E99F01F3E18F4EF
:102870001D3EA1F51CC0103FB9F0123F79F50BC009
:10288000163FD9F0173F50F11E3F59F01F3F31F569
:1028900005C08EEE25C08AEF64E022C08AEF68E0B2
:1028A0001FC0809184071CC08AEF62E019C08AEFC4
:1028B00066E016C08AEF67E013C081E08093E50010
:1028C00085E090E0A0E0B0E08093E6009093E70020
:1028D000A093E800B093E9000E94D7118AEF60E06E
:1028E0000E94A91280E090E01F910895CF93DF939A
:1028F00088E080938507F8940E94CE152FE088E148
:1029000090E00FB6F894A89581BD0FBE21BD7894D4
:10291000C0E0D0E0A8958091870782FF10C0CC3F2F
:10292000D10559F020918C0330918D0380918E0355
:1029300090918F032817390711F40E94B7138091E3
:10294000870784FFE7CF0E94B512EC01E3CF8093A5
:102950006904F894809187078F7E80938707809120
:10296000870788608093870778940895F89480910A
:1029700087078B7F809387077894809168040895F8
:102980008FEC82BF80918607833000F58B98939AF5
:102990008091870780FF23C0829BA3C08091860718
:1029A000813031F0813040F0823009F0F6C006C04D
:1029B000839902C08DE096C082E094C08091870721
:1029C00083FFEBC093988B9A84E28CC0809186073A
:1029D0008A3108F079C08091870780FD08C0809116
:1029E00087078160809387078A98929A0895829BCF
:1029F00076C080918607873140F4803118F58D309C
:102A000061F08F3009F055C00CC08831E1F1883198
:102A100058F1893109F04DC049C0809187078D7FF9
:102A20004DC0809187078B7F80938707839B05C06C
:102A300080E88093680481E014C010926B041092C7
:102A4000680437C080916804869580936804839BEE
:102A500030C08091680480688093680480916B0422
:102A60008F5F80936B0425C0839B05C080916B04AE
:102A70008F5F80936B0480916B0480FD1AC08091FE
:102A80008707826010C0839905C0809187078260A4
:102A9000809387078091870781FD0BC093988B9A5D
:102AA0008091870784608093870703C08B98939AEF
:102AB0006CC092988A9A809187078E7F809387074F
:102AC000809186078F5F0EC0809186078F3208F055
:102AD00064C08091870780FF10C0829906C08B98E0
:102AE000939A81E0809386070895809187078E7F6F
:102AF0008093870792988A9A0895809187078160CA
:102B0000809387078A98929A809186078C3228F45E
:102B1000853280F48432E1F507C08D3299F18D322F
:102B2000E8F08E32A9F531C08091690480936A047F
:102B300010926B0480916A0480FF08C08B98939A6E
:102B400080916B048F5F80936B0402C093988B9A83
:102B500080916A04869580936A041AC080916B0400
:102B600080FF03C093988B9A02C08B98939A8091B0
:102B70008707877F8093870780918707806180938D
:102B8000870706C08B98939A03C010928607089512
:102B9000809186078F5F809386070895109286073D
:102BA00081E1809387078A98929A8B98939A0E94E2
:102BB0008C1682E00E94B31680E060EC74E10E9403
:102BC000E91689B7816089BF8FEC82BF08950895A7
:102BD000882329F0909A8898899A91980895889ADC
:102BE0009098919A899808958FEF8BBB88BB8CEF52
:102BF00085BB1ABA17BA93E094BB81EF82BB91BB35
:102C000080E090E00895A49AAC9888E28A95F1F764
:102C1000CF9907C08CE090E061E00E94981F81E0AE
:102C20000895B29907C08CE090E060E00E94981F80
:102C300080E008958CE090E00E94901F811181E077
:102C400008950E94F4150E940316809388070E943D
:102C5000E8150E945D1688E00E94B11788E090E0B8
:102C60000E940B180E94360A0E948E0B80918807E2
:102C70008823A1F081E00E94A61C85E090E00E94DC
:102C8000CA1987E090E00E94CA1988E090E00E948B
:102C9000CA190E94551C0E94DC100BC085E090E010
:102CA0000E94471B80E00E94A61C0E94551C0E94A7
:102CB000761480E090E00895089580E090E0FC01B3
:102CC000EE0FFF1FE459FB4F1182108201968830EE
:102CD0009105A9F783B7887F826083BF12BE1092E7
:102CE000890710928A0710928B0710928C078EB575
:102CF000887F82608EBD1DBC1CBC85B5887F8260CC
:102D000085BD14BC10929107109292071092930700
:102D1000109294077894089583B7887F826083BF68
:102D200012BE1092890710928A0710928B07109298
:102D30008C0708958EB5887F82608EBD1DBC1CBC3B
:102D4000089585B5887F826085BD14BC1092910777
:102D5000109292071092930710929407089589B7E2
:102D6000806489BF089593B7987F982B93BF089587
:102D70009EB5987F982B9EBD089595B5987F982B0A
:102D800095BD089583B7E82FF0E0E770F070EE0F7F
:102D9000FF1FE952FC4F25913491C90108958EB56A
:102DA000E82FF0E0E770F070EE0FFF1FE952FC4FE4
:102DB00025913491C901089585B5E82FF0E0E770B9
:102DC000F070EE0FFF1FED51FC4F25913491C901BA
:102DD0000895883040F4E82FF0E0EE0FFF1FE4592B
:102DE000FB4F718360830895883040F4E82FF0E052
:102DF000EE0FFF1FE459FB4F118210820895EF92EE
:102E0000FF920F931F93CF93DF93EC0112B71092B1
:102E10008D0710928E0710928F071092900783B73C
:102E2000E82FF0E0E770F070EE0FFF1FE952FC4F63
:102E30002591349140E050E060E07BE187EB90E049
:102E40000E944C1FB901CA01693B2DE8720726E0B8
:102E5000820720E09207A0F437E2C131D30780F463
:102E60009E0140E050E00E94FA1E28EE33E040E070
:102E700050E00E944C1FC901DA01BC01CD0121C004
:102E800028EE33E040E050E00E944C1FCA01B90137
:102E90009E0140E050E00E94FA1E13C080918D0711
:102EA00090918E07A0918F07B091900785B78F788A
:102EB00085BF85B7806885BF889585B78F7785BFC3
:102EC00008C09B01AC01210F311D411D511D79012D
:102ED0008A0120918D0730918E0740918F07509184
:102EE000900782B790E0A0E0B0E0542F432F322F3C
:102EF0002227822B932BA42BB52B8E159F05A00781
:102F0000B10760F2DF91CF911F910F91FF90EF9089
:102F100008951092890710928A0710928B071092D9
:102F20008C0708952091890730918A0740918B077B
:102F300050918C07B901CA0108951092910710921F
:102F40009207109293071092940708952091910789
:102F5000309192074091930750919407B901CA01AB
:102F60000895893031F48FB582608FBD8FB58E7F23
:102F70000AC08A3019F48FB5826002C08FB58D7F88
:102F80008FBD8FB581608FBD1BBC1ABC19BC18BC2E
:102F900008952FB52E7F2FBD2FB522602FBD2EB5E2
:102FA00028602EBD2EB520612EBD97BD86BD1BBCF1
:102FB0001ABC19BC18BC08958FB58D7F8FBD8FB515
:102FC0008E7F8FBD8FB58F778FBD8FB58F7B8FBD78
:102FD0008FB58F7D8FBD8FB58F7E8FBD08958FB5D7
:102FE00080688FBD8FB58F7B8FBD08958FB5806250
:102FF0008FBD8FB58F7E8FBD08958FB58F778FBDB5
:103000008FB58F7B8FBD08958FB58F7D8FBD8FB5A9
:103010008F7E8FBD089585B5877F85BD85B580641A
:1030200085BD13BC089585B5806285BD85B58F7E4D
:1030300085BD089585B58F7D85BD85B58F7E85BDA0
:10304000089583BD08959BBD8ABD089599BD88BD2F
:1030500008951F920F920FB60F9211242F933F9352
:103060004F935F936F937F938F939F93AF93BF9390
:10307000EF93FF938091890790918A07A0918B0726
:10308000B0918C070196A11DB11D80938907909383
:103090008A07A0938B07B0938C0780918D0790913E
:1030A0008E07A0918F07B09190070196A11DB11DC9
:1030B00080938D0790938E07A0938F07B09390070E
:1030C00080916C0490916D04892B29F0E0916C043F
:1030D000F0916D040995FF91EF91BF91AF919F9190
:1030E0008F917F916F915F914F913F912F910F90B1
:1030F0000FBE0F901F9018951F920F920FB60F9250
:1031000011242F933F934F935F936F937F938F93EC
:103110009F93AF93BF93EF93FF9380916E04909131
:103120006F04892B29F0E0916E04F0916F040995EA
:10313000FF91EF91BF91AF919F918F917F916F918F
:103140005F914F913F912F910F900FBE0F901F9065
:1031500018951F920F920FB60F9211242F933F9341
:103160004F935F936F937F938F939F93AF93BF938F
:10317000EF93FF938091910790919207A09193070D
:10318000B09194070196A11DB11D80939107909372
:103190009207A0939307B09394078091760490913F
:1031A0007704892B29F0E0917604F0917704099552
:1031B000FF91EF91BF91AF919F918F917F916F910F
:1031C0005F914F913F912F910F900FBE0F901F90E5
:1031D00018951F920F920FB60F9211242F933F93C1
:1031E0004F935F936F937F938F939F93AF93BF930F
:1031F000EF93FF9380917A0490917B04892B29F0BF
:10320000E0917A04F0917B040995FF91EF91BF91D1
:10321000AF919F918F917F916F915F914F913F916E
:103220002F910F900FBE0F901F9018951F920F9225
:103230000FB60F9211242F933F934F935F936F9389
:103240007F938F939F93AF93BF93EF93FF9380915F
:10325000700490917104892B29F0E0917004F09131
:1032600071040995FF91EF91BF91AF919F918F915B
:103270007F916F915F914F913F912F910F900FBE72
:103280000F901F9018951F920F920FB60F92112456
:103290002F933F934F935F936F937F938F939F935E
:1032A000AF93BF93EF93FF93809172049091730457
:1032B000892B29F0E0917204F09173040995FF9134
:1032C000EF91BF91AF919F918F917F916F915F919E
:1032D0004F913F912F910F900FBE0F901F90189517
:1032E0001F920F920FB60F9211242F933F934F937B
:1032F0005F936F937F938F939F93AF93BF93EF935E
:10330000FF938091740490917504892B29F0E091CA
:103310007404F09175040995FF91EF91BF91AF91FD
:103320009F918F917F916F915F914F913F912F91DD
:103330000F900FBE0F901F9018951F920F920FB60F
:103340000F9211242F933F934F935F936F937F932B
:103350008F939F93AF93BF93EF93FF9380917804E4
:1033600090917904892B29F0E0917804F091790407
:103370000995FF91EF91BF91AF919F918F917F91AF
:103380006F915F914F913F912F910F900FBE0F90D2
:103390001F901895DC018B309105B0F4FC01EE0F05
:1033A000FF1FE054FE4F0190F081E02DAA52BE4F66
:1033B00081E090E00C9002C0880F991F0A94E2F718
:1033C0008095208128232083089508950895EF9201
:1033D000FF920F931F93CF93DF93C4E0D0E000E000
:1033E00010E02FEFE22E21E0F22E4FEFDE01AB5284
:1033F000BB4F8C918431B0F49E01220F331FF90131
:10340000E052FB4FF182E0828F5F8C932A503B4F5A
:10341000849FC001112464E170E00E94391FF9010A
:103420007183608321960F5F1F4F07301105F1F6FE
:10343000DF91CF911F910F91FF90EF9008958BE056
:1034400090E0609197070E94981F0895873091053A
:1034500079F08830910518F40597B1F406C08830EA
:10346000910549F00B9781F409C00E94FD1708955A
:103470000E94041808950E941A1808950E94FD17CA
:103480000E9404180E941A1808952F923F924F929A
:103490005F926F927F928F929F92AF92BF92CF92E4
:1034A000DF92EF92FF920F931F93CF93DF93C9ECBC
:1034B000D4E0F0E04F2EF5E05F2EEAED6E2EE4E072
:1034C0007E2E08EB14E07AEE872E74E0972E6AEBDE
:1034D000C62E61E0D62E5FEAA52E51E0B52E45E05E
:1034E000E42EF12C33243A9434E1232E2E2D8091B6
:1034F000970790E04BE050E0849FF001859FF00D2E
:10350000949FF00D1124EE0DFF1DE458FB4FE08158
:10351000EE2359F0E13009F04EC08091E301909123
:10352000E401895E934008F47DC0F801808188231E
:1035300061F4F5018081839DC001112428813981C6
:103540002817390790F121E00DC0823071F4F6019F
:103550008081839DC0011124288139812817390772
:1035600020F123E0F801208320C0813071F4F601BE
:103570008081839DC0011124288139812817390752
:10358000A0F01982188222E0EDCF833071F4F501AA
:103590008081839DC0011124288139812817390732
:1035A00020F019821882F801108288819981019691
:1035B000998388833FC0E230A9F5F401808191812D
:1035C000009721F001979183808334C0F2014081FC
:1035D00051814115510509F1288139812F5F3F4FF4
:1035E00039832883F601808190E02817390710F18C
:1035F00019821882CA010197F201918380832FEF0B
:1036000030E0281B390BC9016CE070E00E94251FD7
:10361000822D861BF30180830DC0F3011082198275
:10362000188208C0822F90E00E94261A1982188200
:10363000F80110820894E11CF11C229622E030E08F
:10364000420E531E0894611C711C0F5F1F4F820EA7
:10365000931E0894C11CD11C0894A11CB11C39E014
:10366000E316F10409F042CFDF91CF911F910F9142
:10367000FF90EF90DF90CF90BF90AF909F908F9092
:103680007F906F905F904F903F902F900895CF93D1
:10369000DF93EC018B309105B8F40E94261AFE01ED
:1036A000EE0FFF1FE054FE4F0190F081E02DCA5253
:1036B000DE4F81E090E0088002C0880F991F0A94D5
:1036C000E2F72081282B2083DF91CF910895AC0170
:1036D0006430710534F4623071056CF477FF20C0FA
:1036E0000EC06630710524F06830710544F403C0E3
:1036F0000E94471B0895CA010E94CA19089580912B
:10370000970790E02BE030E0829FF001839FF00D5F
:10371000929FF00D1124E40FF51FE458FB4F108227
:103720000895E82F80919A078F5F80939A078150C0
:103730008A3518F180919607F0E0B4E0EE0FFF1F94
:10374000BA95E1F7E80FF11DE65BFE4F808181300D
:1037500029F483E090E00E94471B04C083E090E0DE
:103760000E94CA19809196078F5F809396078031D7
:1037700010F01092960710929A070895E82F809102
:1037800098078F5F8093980781508A3518F1809150
:103790009907F0E094E0EE0FFF1F9A95E1F7E80F2C
:1037A000F11DE651FF4F8081813029F484E090E0E3
:1037B0000E94471B04C084E090E00E94CA198091D7
:1037C00099078F5F80939907803110F010929907C5
:1037D000109298070895EF92FF920F931F93CF9343
:1037E000DF93082F80FF05C080E090E00E94471B18
:1037F00004C080E090E00E94CA1901FF22C081E06D
:1038000090E00E94471BC5E0D0E00BE010E0809103
:10381000970790E0809FF001819FF00D909FF00D41
:103820001124EC0FFD1FE458FB4F8081863021F4FA
:103830008C2F90E00E94471B2196C930D10539F7A3
:103840002DC081E090E00E94CA19C5E0D0E02BE0D5
:10385000E22EF12C8091970790E08E9DF0018F9DD4
:10386000F00D9E9DF00D1124EC0FFD1FE458FB4F51
:103870008081863021F48C2F90E00E94CA19219615
:10388000C930D10539F702FF05C082E090E00E94FF
:10389000471B04C082E090E00E94CA19DF91CF91DB
:1038A0001F910F91FF90EF900895EF92FF920F9369
:1038B0001F93CF93DF938BE090E00E94901F809343
:1038C0009707853010F010929707ACE7B4E0E0E07E
:1038D000F8E684918D93319684E0A33BB807C9F74D
:1038E000C4E0D0E000E010E04BE0E42EF12CFE015B
:1038F000ED54FB4F1082FE01EE0FFF1FE154FB4F12
:10390000118210828091970790E08E9DF0018F9D2B
:10391000F00D9E9DF00D1124EC0FFD1FE458FB4FA0
:103920006081CE0170E00E94671B21960F5F1F4FE0
:1039300006301105E1F6809195070E94EB1BDF919F
:10394000CF911F910F91FF90EF9008951F93182F23
:103950008BE090E00E94CA19112319F083E090E0F7
:1039600002C080E090E00E94471B88EE93E02CE2CA
:1039700031E0F9013197F1F70197D9F78BE090E049
:103980000E94CA1982E090E00E94471B88EE93E0F3
:103990002CE231E0F9013197F1F70197D9F78BE08B
:1039A00090E00E94CA19112319F080E090E002C053
:1039B00083E090E00E94471B88EE93E02CE231E028
:1039C000F9013197F1F70197D9F78BE090E00E9468
:1039D000CA191F910895CF92DF92EF92FF920F9331
:1039E0001F93CF93DF93C5E0D0E000E010E064E0E8
:1039F000E62EF12CE822F9225BE0C52ED12C809135
:103A00009707E114F104C1F090E08C9DF0018D9DC9
:103A1000F00D9C9DF00D1124EC0FFD1FE458FB4FA1
:103A2000E081E33001F1E43019F0E130F9F41BC03A
:103A3000CE010E94261A13C090E08C9DF0018D9D4E
:103A4000F00D9C9DF00D1124EC0FFD1FE458FB4F71
:103A5000E081E33021F0E43031F0E13039F4CE019F
:103A60000E94CA1903C0CE010E94471B21960F5F16
:103A70001F4F0430110519F6DF91CF911F910F915F
:103A8000FF90EF90DF90CF9008952F923F924F924A
:103A90005F926F927F928F929F92AF92BF92CF92DE
:103AA000DF92EF92FF920F931F93DF93CF93CDB7E7
:103AB000DEB72C970FB6F894DEBF0FBECDBF885689
:103AC0008093970783EF93E00E942D0DA89524EF34
:103AD00035E080E090E044E150E06FEF0BC061938F
:103AE000E217F307E1F701969F012C5E3F4F863006
:103AF000910551F0849FF001859FF00D949FF00D8A
:103B00001124E052FA4FEBCF83ED94E00E942D0D8B
:103B1000A8950E94F70690E00E94EB1C0E94451AAF
:103B200078EC472E75E0572E28E536E03A83298356
:103B30006624772422243324D2018D919D910D9007
:103B4000BC91A02D8F839887A987BA87E981FA81D4
:103B5000C080D180E280F380D201CD92DD92ED92DF
:103B6000FC921397E4E1F0E06E9E80016F9E100DD1
:103B70007E9E100D112400521A4F882499249C2DEA
:103B800091702F81388549855A8556954795379587
:103B900027952B833C834D835E83F694E794D794DB
:103BA000C794E091D600F091D700E20DF31DE80D27
:103BB000F91D8491882309F4F5C03F8130FD05C0CB
:103BC000992339F0D8011C9204C0992311F4F8010B
:103BD0001082D8012C9127FDE5C02F5F2C93215036
:103BE00024300CF4DFC0992309F4D9C0843709F0DC
:103BF00066C083ED94E00E942D0DA8950BEA14E0B9
:103C0000B5E0AB2EB12CABE0EA2EF12CFFE0DF2EBD
:103C1000B6E0AB16C9F0C8010E942D0D8091970740
:103C200090E08E9DF0018F9DF00D9E9DF00D112472
:103C3000EA0DFB1DE458FB4F80818D9DC0011124CE
:103C40008D5C9B4F0E942D0D085F1F4F0894A11C97
:103C5000B11CE4E00B3C1E07D9F683ED94E00E9412
:103C60002D0DA89583E194E00E942D0D8CE794E042
:103C700040E058E660E070E00E94A30BA8958BE05E
:103C800090E0609197070E94981FA8952C960FB618
:103C9000F894DEBF0FBECDBFCF91DF911F910F9182
:103CA000FF90EF90DF90CF90BF90AF909F908F905C
:103CB0007F906F905F904F903F902F900895282FA6
:103CC00027568091970790E0A22EBB244BE050E04E
:103CD000849FF001859FF00D949FF00D1124EA0D53
:103CE000FB1DE458FB4F80818F5F8083883008F094
:103CF0001082A895822F90E0E3E0880F991FEA9543
:103D0000E1F78D579B4F0E942D0DA8958091970745
:103D100090E0ABE0B0E08A9FF0018B9FF00D9A9F9E
:103D2000F00D1124EA0DFB1DE458FB4F8081BFE02C
:103D30008B9FC00111248D5C9B4F0E942D0D79EC4F
:103D4000A72E74E0B72EE5E0F0E0FC87EB87EB856B
:103D5000FC85ED54FB4F1082D5011D921D925D0133
:103D60008091970790E02BE030E0829FF001839FE5
:103D7000F00D929FF00D11244B855C85E40FF51F2B
:103D8000E458FB4F60818B8590E070E00E94671BD8
:103D90008B859C8501969C878B870997C1F6EFEFF1
:103DA000D801EC930894811C911C0F5F1F4FF4E124
:103DB0008F16910449F02B813C814D815E812F83C8
:103DC000388749875A87DBCE0894611C711C44E010
:103DD00050E0440E551E89819A8104969A83898306
:103DE000A4E1B0E02A0E3B1EB6E06B16710409F0A8
:103DF000A3CE8ECE629FD001739FF001829FE00D13
:103E0000F11D649FE00DF11D929FF00D839FF00D59
:103E1000749FF00D659FF00D9927729FB00DE11D05
:103E2000F91F639FB00DE11DF91FBD01CF011124E2
:103E30000895991B79E004C0991F961708F0961B06
:103E4000881F7A95C9F780950895AA1BBB1B51E17D
:103E500007C0AA1FBB1FA617B70710F0A61BB70BFA
:103E6000881F991F5A95A9F780959095BC01CD019F
:103E7000089597FB092E07260AD077FD04D0E5DFC9
:103E800006D000201AF4709561957F4F0895F6F7DB
:103E9000909581959F4F0895A1E21A2EAA1BBB1BF6
:103EA000FD010DC0AA1FBB1FEE1FFF1FA217B30706
:103EB000E407F50720F0A21BB30BE40BF50B661F1C
:103EC000771F881F991F1A9469F7609570958095E0
:103ED00090959B01AC01BD01CF01089597FB092E80
:103EE00005260ED057FD04D0D7DF0AD0001C38F4C9
:103EF00050954095309521953F4F4F4F5F4F089516
:103F0000F6F790958095709561957F4F8F4F9F4FF5
:103F10000895DC0101C06D9341505040E0F70895D1
:103F2000E199FECF9FBB8EBBE09A99278DB3089590
:103F3000262FE199FECF9FBB8EBB2DBB0FB6F89409
:0E3F4000E29AE19A0FBE01960895F894FFCF21
:103F4E005AFF80800B080F0F120B080F0F120B0871
:103F5E000F0F120B080F0F120B080F0F120000009D
:103F6E000000AA19AA0613000000000000000000BD
:103F7E000000000000000000000000000000000033
:103F8E00A70BA70C0A0BA71EA7000000000000003D
:103F9E0000000000000000000000000000000063B0
:103FAE0000000064000000650000006600002D00A7
:103FBE000070000001000200040008001000200044
:103FCE004000800001020A00000001010101010110
:103FDE0001010101010101010101010000000000C8
:103FEE0000000000000000000000010001000000C1
:103FFE0000000000000000000000010001000100B0
:10400E00000000000000000000000100010001009F
:10401E00010000000000000000000100010001008E
:10402E000100010001000100010001010101010177
:10403E000101010101010101010101000000000067
:10404E00000000000000000000000100010001005F
:10405E00010001000100010001000100010001004A
:10406E00010001000100010001000100010001003A
:10407E00000000000000000000000100010001002F
:10408E000100000000000000000001010101030317
:10409E0003030303030101010105050505050505DC
:1040AE00350035003500350035003500350035005A
:1040BE003500350035000000000000000000000053
:0240CE000000F0
:107C0000822F8F7711F4F8947894F89478942E5FFB
:107C10003F4F4F4F5F4F822F8F7711F4F894789436
:067C2000925071F7089577
:00000001FF
