:100000000C9475020C94AD020C9492020C94920222
:100010000C944E190C945A180C9421190C94C7186E
:100020000C94F4180C942D180C949A180C94DA175C
:100030000C9492020C9492020C9492020C949202F0
:100040000C9492020C9492020C9492020C949202E0
:100050000C9492024D0B3D0B750B7E0B3F0B410B2D
:10006000450B750B490B4B0B470B550B6B0B4F0B94
:100070006F0B730B7C0B750B750B750B750B750B81
:10008000750B750B750B750B670B650B6D0B530BB8
:10009000710B770B630B750B750B750B750B750B74
:1000A000750B750B750B750B750B750B750B750B50
:1000B000750B750B750B750B750B750B750B750B40
:1000C000750B750B750B750B750B570B5F0B5B0B7E
:1000D000430B510B7E0B750B750B750B750B750B6D
:1000E000750B750B750B750B750B750B750B750B10
:1000F000750B750B750B750B750B750B750B750B00
:10010000750B750B750B750B750B590B610B5D0B37
:10011000690B040309041403530079007200790089
:1001200061006E000A0345004D002E0037001201E9
:10013000100100000008424231E10001010200010B
:100140000000FC001C322123242B3433433B424B60
:100150003A31444D152D1B2C3C2A1D22351A161EF2
:1001600026252E363D3E46455A76660D294E555477
:100170005B5D5D4C520E41494A580506040C030B69
:10018000830A010978077C7E77706C7D71697A74C7
:100190006B7275774A7C7B795A69727A6B73746C6F
:1001A000757D7071612F370F081018202830384086
:1001B0004850575F000000000000000000000000F1
:1001C00000000000006D0051136A64672700000002
:1001D000F2F163625F000000000000000000000018
:1001E0000000000000001412111F14591127000014
:1001F0004D153B3423000032210000000050482BF5
:1002000040103A3830282018000000000000373F26
:100210005E00000000000000000000000000000080
:1002200000000000000000000000000000000000CE
:1002300000000000000000000000000000000000BE
:10024000464800004891900095969700A9AAADAC49
:100250006546494A4B4C4D4E52504F515458959615
:1002600097BDC0C1C2C3C4C5C6AFB0B1B2B3B6B703
:10027000BCBEBFC8C9CACBC70000494C4A4D4B4E93
:10028000A9AD65504F52515400004D4143524F208B
:100290007265636F7264206D6F6465400000407228
:1002A00065636F726420646F6E654000000000003B
:1002B00000004D4143524F2065726173650000009C
:1002C000000000000000646F6E6540000000000048
:1002D0000000000000000000000005010906A10167
:1002E00075019508050719E029E715002501810228
:1002F0009501750881039505750105081901290502
:10030000910295017503910395067508150025FF67
:100310000507190029FF8100C005010902A1018517
:10032000010901A10005091901290515002501751B
:1003300001950581027503950181030501093009C5
:10034000311581257F7508950281060938158125AB
:100350007F35004500750895018106050C0A3802B5
:100360001581257F750895018106C0C005010980AA
:10037000A1018502150125B7190129B7751095014D
:100380008100C0050C0901A10185031501269C020D
:1003900019012A9C02751095018100C009023B00D9
:1003A00002010080FA090400000103010100092193
:1003B00001010001223F000705810308000A09042A
:1003C0000100010300000009210101000122830056
:1003D0000705830308000A00000100080040000030
:1003E000010004000001000800200040008000001F
:1003F0000100044C4544207265636F7264206D6F88
:100400006465202D207075736820616E79206B659E
:100410007940004C4544207265636F726420646FBC
:100420006E654000000000000000000000000000B9
:10043000000000666164696E674000000000000013
:100440000000666164696E672D707573686F6E4039
:10045000007075736865642D77656967687440001E
:10046000707573686F6E400000000000000000703F
:100470007573686F66664000000000000000616CE4
:100480007761797340000000000000000063617034
:100490007340000000000000000000006F6666402E
:1004A000000000000000000000000046782D2D2D07
:1004B0002D00005061642D2D2D0000426173652DCB
:1004C0002D0000574153442D2D00004172726F776B
:1004D0002D00003D3D3D3D3D3D3D3D3D3D3D3D3DD6
:1004E0003D3D3D3D3D3D3D3D400011241FBECFE51E
:1004F000D8E0DEBFCDBF11E0A0E6B0E0ECEFFDE359
:1005000002C005900D92A031B107D9F716E0A0E125
:10051000B1E001C01D92A534B107E1F70E94DD15DD
:100520000C94FC1E0C940000A82FB92F80E090E0E2
:1005300041E050EA609530E009C02D9182279795FF
:10054000879510F084279527305EC8F36F5FA8F376
:100550000895EADF8D939D930895CF93CFB7CF93FE
:10056000C395839BE9F7839B09C0839B07C0839B4B
:1005700005C0839B03C0839B01C0A3C0DF93C091D0
:10058000D303DD27C652DC4F839B02C0DF91EBCF44
:100590002F930F931F9300B32FEF03FB20F94F937B
:1005A0003F9310B34FEF012703FB21F93BE031C02C
:1005B0004E7F012F10B3216028C0102F4D7F226085
:1005C000000000B329C04B7F2460012F000010B34E
:1005D0002BC010B3477F28602AC04F7E00B3206134
:1005E0002CC04F7D10B320622FC04F7B00B320641E
:1005F00032C0422700B349934FEF0000102713FB8E
:1006000020F910B31C70C9F1297F91F2012703FB77
:1006100021F900B3237F89F2315058F1102713FBE1
:1006200022F910B3277E79F2012703FB23F92F7CEF
:1006300081F200B3102713FB24F92F7971F200C067
:1006400010B3012703FB25F92F7359F200C000B343
:10065000102713FB26F9223040F200C010B3012707
:1006600003FB27F9243028F64F77206810B30000E9
:10067000F9CF10E41ABF002719C03B503195C31BB6
:10068000D04010E41ABF0881033CF9F00B34E9F0C4
:100690002091D1031981110F1213EDCF4A81441F0C
:1006A000093641F10D3211F0013E29F70093D803CC
:1006B0003F914F911F910F912F91DF91CAB7C6FDC6
:1006C0004FCFCF91CFBFCF9118952091D803222340
:1006D00079F31091D6031123C1F53430C2F1309370
:1006E000D6032093D2031091D3033BE0311B309308
:1006F000D3032DC00091D60301303CF50AE54F70BD
:1007000049F43091600034FD24C000936000CAEBCE
:10071000D3E023C0433049F03091C50334FD19C004
:100720000093C503C6ECD3E018C03091F00334FD4C
:1007300010C00093F003C1EFD3E00FC02795A8F4D9
:100740005150A9F4220F0000F9CF4AE503C042ED51
:1007500001C0432FC4E1D0E032E011B31C60939A92
:1007600011BB02B320E41CE05F93012756E002BBFB
:10077000279520F4515021F4220FF9CF012756E09C
:1007800000003B5A02BBD0F2279528F4515029F4BF
:10079000220F0000F9CF012756E0279502BB20F475
:1007A000515021F4220FF9CF012756E0299133232C
:1007B00002BB21F6037F1091D703110FC651D04021
:1007C00002BB11F01093D10310E41ABF086011B3FB
:1007D000137F402F437F5F9100C000C002BB11BB5D
:1007E00042BB66CF85B7826085BF8BB780648BBF05
:1007F0008BE48093C6038093F1038AE58093C5035D
:100800008093F00308951F93CF93DF936091D603F5
:10081000635067FDB1C08091D303CCE0D0E0C81B2A
:10082000D109C652DC4F8091D2038D3209F091C0BC
:10083000683009F09FC083EC8093BA038AE5809307
:100840006000109210018881807629F0CE010E940C
:10085000530F282F6BC09A811092C303898188237C
:1008600021F41092C40322E05AC0853019F4909309
:10087000D70354C08630E1F58B81813041F48EE29C
:1008800091E09093D5038093D40322E12DC0823070
:1008900029F18330F9F48A81882341F482E191E0DF
:1008A0009093D5038093D40324E01EC0813041F49B
:1008B00086E191E09093D5038093D4032EE014C099
:1008C000823089F484E291E09093D5038093D4033D
:1008D0002AE00AC0813211F0823229F4CE010E944E
:1008E000190F282F01C020E080E4809310011EC062
:1008F000883021F421E089ED93E013C0893019F4A8
:100900009093D9030BC08A3011F421E008C08B30DA
:1009100029F48BE48093C6038093F10320E083ECF9
:1009200093E09093D5038093D40309C02F3F39F40B
:10093000888187FD2E8180E88093100106C08F8119
:10094000882319F48E81821708F0822F809361002A
:1009500011C08091100187FF0DC0CE010E941411BB
:100960008F3F21F48EE18093600004C0882311F052
:10097000109261001092D6038091600084FF46C0FF
:10098000809161008F3F09F441C0182F893008F031
:1009900018E0811B809361008091BA0398E8892751
:1009A0008093BA03112321F12091D4033091D50310
:1009B0008091100186FF0AC0912FF901ABEBB3E0E3
:1009C00084918D9331969150D9F708C0912FD90118
:1009D000EBEBF3E08D9181939150E1F7C901019622
:1009E0001150810F911D1F5F9093D5038093D40305
:1009F0008BEB93E0612F0E94A902612F6C5F6C303A
:100A000019F08FEF809361006093600094E180B3F0
:100A10008C7031F49150D9F71092D7031092D10312
:100A2000DF91CF911F9108951F93CF93DF93DC0146
:100A3000162FEA01888184FF05C0898198E88927FB
:100A4000898302C08AE58883AE014E5F5F4F212F04
:100A5000FA018D91819321501216DCF3CA01612FA6
:100A60000E94A9021C5F1883DF91CF911F91089506
:100A700040EF53E00E941405089545EC53E00E94B6
:100A800014050895AF92BF92CF92DF92EF92FF923A
:100A90000F931F93482F42954695477050E04E5F45
:100AA0005F4F21E030E002C0220F331F4A95E2F78A
:100AB00024BB95B32095292325BB98E29A95F1F79D
:100AC000A9B226B3E0B2209530E040E050E0542FC8
:100AD000432F322F2227A094BB24CC24DD242A29A3
:100AE0003B294C295D29FF24E094F09490EFE92202
:100AF000FF2464E0F594E7946A95E1F7FF2400E0B1
:100B000010E08701FF24EE242E293F29402B512B92
:100B10008F7104C056954795379527958A95D2F7DA
:100B200021703070232B21F088E08093220104C0D3
:100B300080912201882311F083E002C08091150189
:100B40001F910F91FF90EF90DF90CF90BF90AF90EB
:100B50000895982F80911801282F21FD1CC08091A5
:100B6000620080FF07C0993311F496EA03C0963AF9
:100B700009F499E38091630080FF07C0983A11F46B
:100B800099EA03C0993A09F498EA20FF05C0993A16
:100B900011F09D3A09F490E0892F08958FE090E0DC
:100BA000609163000E94EF1E8EE090E06091620011
:100BB0000E94EF1E08950F931F93182F062F863A59
:100BC00069F1873A20F4893309F085C007C0883A73
:100BD00009F444C0893A09F07EC05FC0662349F435
:100BE0008091620080688093620010921A011092D6
:100BF00019018091190190911A01019690931A019F
:100C00008093190101978050944008F464C080E0FB
:100C100094E090931A01809319015DC0662349F412
:100C20008091620080688093620010921C01109293
:100C30001B0180911B0190911C01019690931C0156
:100C400080931B0101978050944008F444C080E0D9
:100C500094E090931C0180931B013DC0662349F4EE
:100C60008091630080688093630010921E0110924F
:100C70001D0180911D0190911E01019690931E010E
:100C800080931D0101978050944028F180E094E00A
:100C900090931E0180931D011EC0662349F480912C
:100CA00063008068809363001092200110921F01FE
:100CB00080911F01909120010196909320018093D3
:100CC0001F0101978050944030F080E094E09093B1
:100CD000200180931F018091190190911A01805089
:100CE000944091F480911B0190911C01805094409C
:100CF00059F49091620097FF07C081E098279F7791
:100D0000909362000E94CE0580911F019091200176
:100D10008050944091F480911D0190911E0180506B
:100D2000944059F49091630097FF07C081E09827A1
:100D30009F77909363000E94CE05812F8C5C803357
:100D4000E0F4002321F41092750410927404809151
:100D500074049091750401969093750480937404C3
:100D600001978050944009F03EC0812F0E94820D6F
:100D7000109275041092740436C0812F8856843006
:100D8000D8F4002321F410922705109226058091B3
:100D900026059091270501969093270580932605B7
:100DA000019780509440F9F4812F0E949C1C10926E
:100DB00027051092260517C01237A9F4002321F445
:100DC00010921F0510921E0580911E0590911F051F
:100DD000019690931F0580931E05019780509440C3
:100DE00011F40E941D0D80E01F910F9108958F92C4
:100DF0009F92AF92BF92CF92DF92EF92FF920F93AA
:100E00001F93CF93DF938091110190911201A091D4
:100E10001301B09114010196A11DB11D8093110120
:100E200090931201A0931301B09314010197A109AB
:100E3000B109805D9B4FA140B04060F080ED9BEF19
:100E4000A1E0B0E08093110190931201A0931301EF
:100E5000B09314018091110190911201A09113019E
:100E6000B0911401805D9B4FA140B04031F580915D
:100E70001601882311F581E08093160184E08093A8
:100E80004406C3E0D0E00BE010E08091440690E01F
:100E9000809FF001819FF00D909FF00D1124EC0FC9
:100EA000FD1FE65DFC4F60818C2F90E070E00E949A
:100EB000181B2196CA30D10541F706E0C02E05E087
:100EC000D02EBB24C2E0D0E011E0812E912CB8E2FC
:100ED000AB2EC4010C2E02C0880F991F0A94E2F7B2
:100EE00084BB25B38095822385BB8A2D8A95F1F733
:100EF000E9B226B380B3209530E040E050E0542FB3
:100F0000432F322F2227E094FF2400E010E02E2907
:100F10003F29402B512B90E080959095807F9070D9
:100F2000F4E095958795FA95E1F790E0A0E0B0E0C0
:100F3000DC0199278827282B392B4A2B5B2BF601BC
:100F400020833183428353832115310541055105A7
:100F5000B1F0F4E0BF2A1092110110921201109228
:100F600013011092140180911601813041F40E9406
:100F7000AC1B809143060E94421B109216012196E1
:100F800084E090E0C80ED91EC830D10509F0A1CF89
:100F90008B2DDF91CF911F910F91FF90EF90DF90FC
:100FA000CF90BF90AF909F908F9008950F931F9315
:100FB000982F8856843008F071C08093440690E0E2
:100FC0000BE010E0809FF001819FF00D909FF00DED
:100FD0001124E65DFC4F648184E090E070E00E94A3
:100FE000181B8091440690E0809FF001819FF00DD6
:100FF000909FF00D1124E65DFC4F658185E090E047
:1010000070E00E94181B8091440690E0809FF001E0
:10101000819FF00D909FF00D1124E65DFC4F6681DD
:1010200086E090E070E00E94181B8091440690E0FA
:10103000809FF001819FF00D909FF00D1124E65DDF
:10104000FC4F678187E090E070E00E94181B809160
:10105000440690E0809FF001819FF00D909FF00D7D
:101060001124E65DFC4F608588E090E070E00E940E
:10107000181B8091440690E0809FF001819FF00D45
:10108000909FF00D1124E65DFC4F618589E090E0B2
:1010900070E00E94181B0E94D01921C0892F8C5625
:1010A0008530E8F09C3C60F080913606882321F082
:1010B000892F0E948D0C13C0892F0E94980B0FC09E
:1010C000933751F42CE088E190E00FB6F894A8959E
:1010D00081BD0FBE21BDFFCF80E0923709F481E0D2
:1010E0001F910F910895982F8856843008F44AC0B4
:1010F0008450853008F446C0692F67586730F0F493
:1011000060931501E62FF0E0EE0FFF1FEE0FFF1FBB
:10111000E254FF4F0190F081E02DED58FF4FE49134
:1011200010922101E03519F481E0809321018DE0D6
:1011300090E00E94EF1E0E94AC1B22C09C3C10F568
:10114000933761F40E94B0152CE088E190E00FB66F
:10115000F894A89581BD0FBE21BDFFCF923791F0C5
:10116000983921F48091180192E007C0993911F063
:1011700080E008958091180191E0892780931801FB
:1011800081E0089581E008952F923F924F925F92FF
:101190006F927F928F929F92AF92BF92CF92DF9287
:1011A000EF92FF920F931F93DF93CF93CDB7DEB7EC
:1011B00060970FB6F894DEBF0FBECDBF0E94F70652
:1011C000882339F49091220119161CF491509093C0
:1011D000220190E00E94421C0E94F6190E947410A5
:1011E000E0911501F0E0EE5DFA4F80810E9442052A
:1011F000F6E72F2EF4E03F2E26E035E038872F83E8
:101200001986442455241E821D82A82EBB24AA0CB4
:10121000BB1CAA0CBB1C6EEB70E0A60EB71ED10166
:10122000ED90FD900D911C911397EF81F885208131
:101230003181428153812D933D934D935C9313975C
:10124000E4E1F0E04E9EC0014F9E900D5E9E900D39
:101250001124BC0162577B4F788B6F877CEF672E20
:1012600073E0772E680E791E88249924D801C7016F
:10127000B695A795979587958B879C87AD87BE87F1
:10128000CA01B901969587957795679569837A83A1
:101290008B839C83D501ED91FC916D817E81E60F5E
:1012A000F71FE80DF91DD490DD2009F487C0CC2488
:1012B000C394C22220FF08C08091180181FD04C0A0
:1012C0008D2D6FEF0E94DB057E2D71707A87E0FC1B
:1012D00008C0CC2091F00E9498198D2D0E947308AF
:1012E00009C0CC2051F48D2D60E00E94DB058D2DCE
:1012F0000E94D607882309F061C08D2D0E94A905A0
:10130000182F8758873008F459C0815E8D3008F453
:1013100055C01C3C08F052C0112309F44FC0809105
:101320003606882309F1AF85B8898C91CC2061F00D
:101330008F5F8C93815084300CF440C0812F0E94C9
:10134000C50F898728E037C08150AF85B8898C9355
:101350008F5F84302CF0812F0E94C50F89872EC0AB
:10136000EF85F88910822AC0FA85FF2331F4CC205A
:1013700049F0AF85B8891C9205C0CC2019F4EF85DF
:10138000F8891082AF85B8898C9187FD17C08F5F6F
:101390008C938150843094F0CC2039F0812F61E01F
:1013A0000E94D811F301108305C0D3018C9160E035
:1013B0000E94D8112FEFEF85F88920830894811CB3
:1013C000911C6F8578896F5F7F4F788B6F8708944A
:1013D000611C711C74E18716910449F0EB84FC8454
:1013E0000D851E8529813A814B815C813FCF089410
:1013F000411C511C84E090E0280E391EAF81B88555
:101400001496B887AF83ED81FE817496FE83ED83D9
:10141000F6E04F16510409F002CF89858560609689
:101420000FB6F894DEBF0FBECDBFCF91DF911F91F5
:101430000F91FF90EF90DF90CF90BF90AF909F9073
:101440008F907F906F905F904F903F902F90089576
:10145000CF93DF93EAE2F5E0119226E0EA32F20759
:10146000D9F7CEEBD0E0FE0180E093E6A0E0B0E05B
:1014700081939193A193B19380509F4FAF4FBF4FF2
:1014800020E0EE3CF207A1F720E432E006C0FC01C8
:10149000E65DFA4F808182608083F901849190E05B
:1014A0002F5F3F4F009799F724E432E006C0FC011C
:1014B000E65DFA4F808184608083F901849190E039
:1014C0002F5F3F4F009799F728E432E006C0FC01F8
:1014D000E65DFA4F808188608083F901849190E015
:1014E0002F5F3F4F009799F72CE432E006C0FC01D4
:1014F000E65DFA4F808181608083F901849190E0FC
:101500002F5F3F4F009799F72AE732E006C0FC01B2
:10151000E65DFA4F808180618083F901849190E0DB
:101520002F5F3F4F009799F7E6E7F4E01192119291
:101530001192119224E0E63CF207C1F7A2E2B5E075
:101540001C926881798140E050E015C0F901E60FF6
:10155000F71FE491E43719F4892F822B8C932F5FC6
:101560003F4F2431310591F74F5F5F4F6C5E7F4FE6
:101570004630510539F0942F9295990F907E20E0D6
:1015800030E0E4CF8C91882319F4809122058C936C
:101590001196249685E0A632B80791F6A6E0B5E04C
:1015A00020E030E044E150E06FEF0EC0619301961F
:1015B00084319105D9F71D921D921D921D922F5FC6
:1015C0003F4F2630310561F0249FF001259FF00D3B
:1015D000349FF00D1124E257FB4F80E090E0E6CFFE
:1015E0008DE090E00E94E71E80931501843010F09A
:1015F000109215018FE090E00E94E71E8093630037
:10160000813011F0109263008EE090E00E94E71E9E
:1016100080936200813011F010926200DF91CF91CF
:101620000895982F81568A3118F4292F2D5510C00E
:10163000892F81548A3120F4292F2D5332E009C09B
:10164000892F8153893010F020E002C0292F2351C7
:1016500030E0892F992787FD9095A92FB92FFC019C
:10166000B097EF35F10508F040C0E65DFF4FEE0F93
:10167000FF1F0590F491E02D09942EE139C021E27D
:1016800037C022E235C023E233C024E231C025E274
:101690002FC026E22DC027E22BC02CE22AC02DE26B
:1016A00028C02DE225C02EE224C02EE221C02FE268
:1016B00020C02FE21DC020E31CC020E319C021E39D
:1016C00018C021E315C028E214C023E312C023E3AD
:1016D0000FC025E30DC026E30CC026E309C027E3B5
:1016E00008C027E305C028E304C0222311F428E33F
:1016F00032E0832F922F089527E2FBCF25E3F9CF25
:101700000895403024E4520720E0620720E0720789
:1017100060F488E10FB6F89481BD11BC0FBE28EBD0
:101720003BE0C9010197F1F7FCCF0E94003E08950C
:10173000EF92FF920F931F93CF93DF938C5CC82F90
:10174000D0E0CE018C599F4F0E94E71E813009F0F6
:1017500073C0CC5BDF4FDC2FCC2700E0FF2498E286
:10176000E92E01C02196043031F484E090E00E941B
:10177000F81A00E005C00F5F84E090E00E947B193A
:10178000FE011491112309F457C0812F865A883025
:1017900040F5E12FF0E0EE0FFF1FE857F040208109
:1017A0003181F2268F2D90E082239323892B19F02B
:1017B000812F61E002C0812F60E00E94D8110BC030
:1017C0008091350684FFFCCF8E2D8A95F1F7892F05
:1017D00060E00E9465120E946811982F8C3F81F78B
:1017E000C1CF812F61E00E94D8110BC080913506D6
:1017F00084FFFCCF8E2D8A95F1F7892F60E00E943F
:1018000065120E946811982F8C3F81F7812F60E04C
:101810000E94D8110BC08091350684FFFCCF8E2D1D
:101820008A95F1F7892F60E00E9465120E94681185
:10183000982F8C3F81F796CFDF91CF911F910F9119
:10184000FF90EF900895DF93CF93CDB7DEB7289741
:101850000FB6F894DEBF0FBECDBF982F8091C503A1
:1018600084FFFCCFFE01319688E0DF011D928A954E
:10187000E9F799836B83CF0168E00E943D052896C4
:101880000FB6F894DEBF0FBECDBFCF91DF910895A4
:1018900080913606882321F080E060E00E94230CCE
:1018A00008950F931F93282F192F809136068823B0
:1018B00029F0822F692F0E94230C2CC0892F61E010
:1018C0000E94D81108E20BC08091350684FFFCCF3E
:1018D000802F8A95F1F7892F60E00E9465120E949F
:1018E0006811982F8C3F81F7812F60E00E94D811FA
:1018F00018E20BC08091350684FFFCCF812F8A95BA
:10190000F1F7892F60E00E9465120E946811982FFC
:101910008C3F81F71F910F910895EF92FF920F93E3
:101920001F93CF93DF938C5CC82FD0E0CE018C59EE
:101930009F4F0E94E71E813009F049C0CC5BDF4F0A
:10194000FC2FEE27EF0121961491EE2400E0FF24F6
:10195000812F865A883048F5E12FF0E0EE0FFF1F07
:10196000E857F0408081F826FE0114911DC0043034
:1019700031F484E090E00E94F81A00E005C00F5FA7
:1019800084E090E00E947B19A8951E1521F48F2D0C
:1019900090E00E94510C8F2D912F0E94510CA89520
:1019A000FE018491E12E182F2196812F855A8A30CD
:1019B00028F0112331F01C3CD0F2CACF112309F0DA
:1019C000C7CF80E090E00E94510C0E94AC1BDF91D9
:1019D000CF911F910F91FF90EF900895CF92DF92DA
:1019E000EF92FF920F931F93CF93DF936C01C0E0B0
:1019F000D0E00FC0812F0E94110B082FF92E1E1569
:101A000011F40E94480C802F9F2D0E94510C2196AA
:101A1000E12EF601EC0FFD1F1491112319F0C032D5
:101A2000D10541F70E94480CDF91CF911F910F9192
:101A3000FF90EF90DF90CF900895CF93DF9382EBEC
:101A400092E00E94EE0CC4E6D0E0A895CE0160E0E2
:101A50000E94EF1E8EEC90E00E94EE0C2196C4389E
:101A6000D10599F78EE090E060E80E94EF1E8FE0CC
:101A700090E060E80E94EF1E86EC92E00E94EE0C7F
:101A8000DF91CF910895FF920F931F93182FF62E99
:101A9000662319F401E382E002C00FE280E0902F98
:101AA0000E94510CA895193AC1F01A3A38F4173A25
:101AB00081F0183A80F4163A89F409C01B3A49F0CB
:101AC0001B3A28F01C3A39F01D3A41F406C006E0F2
:101AD00005C006E103C004E001C00AE080E0902FE9
:101AE0000E94510CA895FF2019F091E382E002C0FA
:101AF00090E380E00E94510C0E94480C1F910F91CE
:101B0000FF9008952F923F924F925F926F927F9233
:101B10008F929F92AF92BF92CF92DF92EF92FF92FD
:101B20000F931F93DF93CF93CDB7DEB763970FB6B5
:101B3000F894DEBF0FBECDBF8C5C898790E08C5BD4
:101B40009F4F382F222738872F83A89584E790E06E
:101B500060E070E00E94DB0522EA34E080E090E083
:101B600044E150E06FEF0BC06193E217F307E1F738
:101B700001969F012C5E3F4F8630910551F0849F66
:101B8000F001859FF00D949FF00D1124E257FB4F5B
:101B9000EBCF8AE892E00E94EE0C1B8A1A8AEE24B0
:101BA000FF248701AF81B885CD01A0E0B0E08E872A
:101BB0009F87A88BB98BA8950E94F7068091150185
:101BC000E6E7F4E0FE83ED8326E035E03C832B83FB
:101BD000222433241A821982682E7724660C771CFB
:101BE000660C771C8EEB90E0680E791EAD81BE818D
:101BF0002D913D914D915C911397EB81FC818080FB
:101C00009180A280B3808D929D92AD92BC921397E9
:101C1000E4E1F0E02E9E60012F9ED00C3E9ED00CA1
:101C200011248EE894E0C80ED91E44245524682D52
:101C30006170DA01C901B695A795979587958A874E
:101C40009B87AC87BD87B694A79497948794D3015C
:101C5000ED91FC9189819A81E80FF91FE40DF51D42
:101C60009491892F84508A3A08F0BBC020FD05C0AA
:101C7000662339F0D6011C9204C0662311F4F601E4
:101C80001082D6018C9187FDACC08F5F8C93815000
:101C900084300CF4A6C0662309F48EC0943769F032
:101CA000B1E0EB16F1040105110509F04AC0EA891B
:101CB000FB89EF37F10509F044C02A893B892D5D86
:101CC0003E4FD9011C92A895F7E0EE0CFF1C001FB7
:101CD000111FFA95D1F7EF81F885CF01A0E0B0E0B0
:101CE000E80EF91E0A1F1B1F83E291E0B801A7014D
:101CF0000E94810BA895F9858F2F90E08C599F4FFA
:101D000061E00E94EF1EA8958EE992E00E94EE0C21
:101D100063960FB6F894DEBF0FBECDBFCF91DF91B3
:101D20001F910F91FF90EF90DF90CF90BF90AF90F9
:101D30009F908F907F906F905F904F903F902F90EB
:101D40000895EA89FB89ED5DFE4F9083892F865ABD
:101D5000883028F4892F61E00E94430D05C080E09F
:101D60000E94510C0E94480C2A893B892F3731056B
:101D7000E9F4B801A701E7E0440F551F661F771F7C
:101D8000EA95D1F78E859F85A889B989480F591F93
:101D90006A1F7B1F83E291E00E94810B0894E11C83
:101DA000F11C011D111D1B8A1A8A18C0AA89BB8942
:101DB0001196BB8BAA8B12C0892F865A883070F47B
:101DC000EA89FB89ED5DFE4F9083EA89FB893196B4
:101DD000FB8BEA8B892F60E00E94430DEFEFD60169
:101DE000EC930894411C511C0894C11CD11CF4E1D3
:101DF0004F16510429F02A853B854C855D8517CF08
:101E00000894211C311C2D813E812C5F3F4F3E8365
:101E10002D838B819C8104969C838B83A981BA81BD
:101E20005496BA83A983B6E02B16310409F0DECEAE
:101E3000C2CEFC018381813261F08232D9F08230DE
:101E400081F58CE993E09093D5038093D4038BE3E1
:101E500008958281882319F0813019F503C08EEA34
:101E600093E002C087EC93E09093D5038093D40372
:101E700089E0089584819581009719F0019789F48C
:101E800008C08AED92E09093D5038093D4038FE34A
:101E9000089589E193E09093D5038093D40383E878
:101EA000089580E00895FC0141E04093230227E279
:101EB00032E03093D5032093D40380818076803242
:101EC000D1F58181813011F488E00895893061F481
:101ED000828193818050924061F584819581892B24
:101EE00041F54093240225C0823019F486E292E045
:101EF0001AC08A3061F4838180932602882319F006
:101F00004093630002C01092630080E00895833024
:101F100031F48381882379F41092E40008958B30A2
:101F200051F484EE90E09093D5038093D40381E044
:101F300008958FEF089580E00895582FDB01642FF6
:101F4000282F392FF90108C090818C91981711F032
:101F500081E00895319611968E2F851B8617A0F388
:101F600080E00895E7E2F2E0AFE2B2E090818C9188
:101F7000981749F482E0EE32F80711F480E00895F2
:101F800031961196F3CF81E00895982F865A8830C4
:101F900068F4E92FF0E0EE0FFF1FE857F040808172
:101FA00090912702892B809327029BC0892F8F5AFB
:101FB0008D3108F062C083E080932A06933B19F4C8
:101FC00082EE90E072C0963B19F489EE90E06DC00D
:101FD000973B19F48AEE90E068C09F3A19F485EBBC
:101FE00090E063C0903B19F486EB90E05EC0913BBB
:101FF00019F487EB90E059C0973C19F48CEC90E011
:1020000054C0923B19F48DEC90E04FC09C3B19F406
:1020100083E891E04AC09D3B19F48AE891E045C00D
:102020009E3B19F482E991E040C09F3B19F484E99A
:1020300091E03BC0903C19F481E292E036C0913CC3
:1020400019F483E292E031C0923C19F484E292E008
:102050002CC0933C19F485E292E027C0943C19F41B
:1020600086E292E022C0953C19F487E292E01DC01E
:10207000963CB1F48AE292E018C0892F84598430EA
:10208000D0F482E080932A06953919F481E890E033
:102090000CC0963919F482E890E007C0973919F01E
:1020A00080E090E002C083E890E090932C0680935B
:1020B0002B0684E017C080913006883050F089E20A
:1020C00092E061E070E046E050E00E94E01E82E0B5
:1020D00009C0E82FF0E0E95DFD4F90838F5F8093AA
:1020E000300680E08160089582E08093300688E0C9
:1020F000E7E2F2E0DF011D928A95E9F710922C06E3
:1021000010922B0680E00895A7E2B2E0EFE2F2E041
:1021100088E001900D928150E1F70895AFE2B2E0BE
:10212000E7E2F2E088E001900D928150E1F7089536
:10213000EF92FF920F931F9310922302F8940E9444
:10214000F2038B9A80E69AEE0197F1F78B987894D8
:102150002FE088E190E00FB6F894A89581BD0FBEFE
:1021600021BD00E0EE24E39401C00F2DA8950E944C
:1021700003040E94C408182F8823C1F3809126020B
:102180008823C1F40E94B20F882309F41E7F909126
:102190002D0680912A06981769F490912E06809159
:1021A0002B06981739F490912F0680912C069817DA
:1021B00009F41B7F08B600FE0DC0E8BEF0902602B1
:1021C000FF2041F0053020F09BEFF92EF00E03C008
:1021D000116001C0F02E10FF12C08091C50384FF72
:1021E0000EC087E292E068E00E943D05AFE2B2E0F7
:1021F000E7E2F2E088E001900D928150E1F712FFF2
:10220000B4CF8091F00384FFB0CF8AE296E063E020
:102210000E943805ADE2B6E0EAE2F6E083E0019024
:102220000D928150E1F7A1CFFC0180912402882317
:1022300039F0613029F48081809343060E94421B6B
:102240001092240281E00895282F8F3F31F41092DC
:10225000380281E080933E0208958E3F21F08D3F49
:1022600029F41092380210923E02089580913E02A5
:10227000882351F080913802E82FF0E0E85FFC4FAE
:1022800020838F5F8093380280913C0290913D02C1
:10229000019668EC70E00E94901EFC0190933D0254
:1022A00080933C0280913A0290913B028E179F07E7
:1022B00059F4009719F487EC90E001C001979093CE
:1022C0003D0280933C020895E15CFD4F2083089518
:1022D00020913A0230913B0280913C0290913D0264
:1022E0002817390711F480E00895C901019668ECB8
:1022F00070E00E94901EFC0190933B0280933A0292
:10230000E15CFD4F8081089540E020913A023091D8
:102310003B0280913C0290913D022817390709F455
:1023200041E0842F089510923B0210923A021092DD
:102330003D0210923C021092380210923902109223
:1023400012031092130310921403109215031092AB
:102350007604109277041092780410927904109207
:102360007A0410927B0410927C0410927D041092E7
:102370007E0410927F0410928004109281041092C7
:1023800082041092830410928404109285041092A7
:102390008604109287041092880410928904109287
:1023A0008A0410928B0410928C0410928D0408956C
:1023B0001F93CF93DF93982F282F30E0F901E05C33
:1023C000FE4F1491662309F44EC0809307031092C8
:1023D000120310921303109214031092150310921B
:1023E0003306E901C65DDA4F888181FF2EC096343D
:1023F00021F0983409F065C00EC08FEF0E942411BF
:1024000080EE0E94241182E10E94241180EE0E943D
:1024100024118CE724C08DEF0E94241181EE0E94CC
:10242000241184E10E94241187E70E94241181EE87
:102430000E94241180EF0E94241184E10E94241143
:1024400080EF0E94241187E737C08FEF0E9424118C
:10245000888180FF03C080EE0E942411812F0E949A
:1024600024118EEF29C080910703891711F410926F
:102470003802E92FF0E0E65DFA4F808181FF13C05A
:102480009634F9F480EE0E94241180EF0E9424110A
:102490008CE70E94241180EE0E94241180EF0E949C
:1024A000241182E109C080FF03C080EE0E94241144
:1024B00080EF0E942411812F0E9424118CEF0E9432
:1024C0002411DF91CF911F9108951F93162F8E3FF6
:1024D00011F0809332060E946314109333061F910B
:1024E0000895EF92FF920F931F93809133068430EB
:1024F00009F4E1C0853030F4882371F0833009F0AD
:10250000EAC0D7C0883009F4DBC08C3009F45DC064
:10251000853009F0E0C0D2C020913A0230913B02F0
:1025200080913C0290913D022817390711F40E94D6
:10253000C4080E946811182F8C3F09F4CDC088236D
:1025400061F060E00E946512109212031092130372
:102550001092140310921503BFC080913802882393
:1025600009F4BAC08091120390911303A09114034F
:10257000B09115030196A11DB11D80931203909394
:102580001303A0931403B09315032091E50062E3B5
:10259000269F900111242C593F4F442737FD409529
:1025A000542F82179307A407B5070CF495C0109217
:1025B0001203109213031092140310921503109239
:1025C00039028CE08093330687C0809139028823DA
:1025D00011F40E94C408809138028823C1F0209130
:1025E0003A0230913B0280913C0290913D022817C3
:1025F000390769F48091120390911303A091140399
:10260000B09115030197A105B10561F40FC01092B7
:1026100033061092120310921303109214031092B7
:10262000150359C0809139028823A9F0909139028D
:10263000E92FF0E0E85FFC4F80819F5F90933902C3
:102640006CE00E94651260913802809139020E940C
:10265000701E90933902E0901203F09013030091E2
:102660001403109115030894E11CF11C011D111DA8
:102670006091E6007091E7008091E8009091E90098
:102680002AE030E040E050E00E94511E9B01AC0186
:102690002D5F3F4F4F4F5F4FC801B7010E94C51ECE
:1026A00060931203709313038093140390931503A4
:1026B00012C082E00DC08BEA65E00BC083E808C061
:1026C0000E94931180E00E94FD1B0E94AC1B8AEACD
:1026D00060E00E94651210E0812F90E01F910F9141
:1026E000FF90EF9008951F930E947214182F60912D
:1026F0003306623099F0633020F4613009F06CC029
:1027000007C0663009F448C0673009F065C00FC0E3
:10271000853F09F49FC08AEF61E09EC00E9493113B
:10272000112311F060E001C063E08AEF95C0682FCB
:1027300070E0CB0180769070A5E095958795AA957D
:10274000E1F78093E500AB0148715070F3E05595D7
:102750004795FA95E1F780E090E021E030E003C092
:10276000220F331F019684179507D4F3677070709A
:10277000269FC001279F900D369F900D1124AA27F8
:1027800097FDA095BA2F8093E6009093E700A09361
:10279000E800B093E9005EC02091430680FF02C0CC
:1027A000246001C02B7F209343062091430681FFC4
:1027B00002C0216001C02E7F209343062091430672
:1027C00082FF02C0226001C02D7F209343068091CA
:1027D00043060E94421B3EC0133F41F1143F60F488
:1027E0001E3E99F01F3E18F41D3EA1F51CC0103F7F
:1027F000B9F0123F79F50BC0163FD9F0173F50F1F1
:102800001E3F59F01F3F31F505C08EEE25C08AEFFF
:1028100064E022C08AEF68E01FC0809132061CC0CD
:102820008AEF62E019C08AEF66E016C08AEF67E0BF
:1028300013C081E08093E50085E090E0A0E0B0E087
:102840008093E6009093E700A093E800B093E9003E
:102850000E9493118AEF60E00E94651280E090E090
:102860001F910895CF93DF9388E080933306F89407
:102870000E948A152FE088E190E00FB6F894A895A1
:1028800081BD0FBE21BD7894C0E0D0E0A8958091B5
:10289000350682FF10C0CC3FD10559F020913A0295
:1028A00030913B0280913C0290913D0228173907FC
:1028B00011F40E9473138091350684FFE7CF0E94C4
:1028C0007112EC01E3CF80931703F89480913506E1
:1028D0008F7E80933506809135068860809335061B
:1028E00078940895F894809135068B7F809335060F
:1028F00078948091160308958FEC82BF80913406FE
:10290000833000F58B98939A8091350680FF23C021
:10291000829BA3C080913406813031F0813040F039
:10292000823009F0F6C006C0839902C08DE096C0DF
:1029300082E094C08091350683FFEBC093988B9A18
:1029400084E28CC0809134068A3108F079C080918D
:10295000350680FD08C0809135068160809335067C
:102960008A98929A0895829B76C080913406873126
:1029700040F4803118F58D3061F08F3009F055C08A
:102980000CC08831E1F1883158F1893109F04DC02E
:1029900049C0809135068D7F4DC0809135068B7F73
:1029A00080933506839B05C080E88093160381E001
:1029B00014C0109219031092160337C080911603A9
:1029C000869580931603839B30C0809116038068A0
:1029D00080931603809119038F5F8093190325C09C
:1029E000839B05C0809119038F5F809319038091A9
:1029F000190380FD1AC080913506826010C083994A
:102A000005C0809135068260809335068091350639
:102A100081FD0BC093988B9A8091350684608093DA
:102A2000350603C08B98939A6CC092988A9A8091CD
:102A300035068E7F80933506809134068F5F0EC0F9
:102A4000809134068F3208F064C08091350680FF93
:102A500010C0829906C08B98939A81E080933406C7
:102A60000895809135068E7F8093350692988A9AD4
:102A70000895809135068160809335068A98929AF0
:102A8000809134068C3228F4853280F48432E1F56A
:102A900007C08D3299F18D32E8F08E32A9F531C040
:102AA00080911703809318031092190380911803E3
:102AB00080FF08C08B98939A809119038F5F809351
:102AC000190302C093988B9A80911803869580937E
:102AD00018031AC08091190380FF03C093988B9A42
:102AE00002C08B98939A80913506877F8093350634
:102AF0008091350680618093350606C08B98939A45
:102B000003C0109234060895809134068F5F80933D
:102B1000340608951092340681E1809335068A9830
:102B2000929A8B98939A0E943D1682E00E946416B6
:102B300080E06CE774E10E949A1689B7816089BFD2
:102B40008FEC82BF08950895882329F0909A889881
:102B5000899A91980895889A9098919A8998089559
:102B60008FEF8BBB88BB8CEF85BB1ABA17BA93E08B
:102B700094BB81EF82BB91BB80E090E00895A49A62
:102B8000AC9888E28A95F1F7CF9907C08CE090E085
:102B900061E00E94EF1E81E00895B29907C08CE0C9
:102BA00090E060E00E94EF1E80E008958CE090E0ED
:102BB0000E94E71E811181E008950E94B0150E94D5
:102BC000BF15809336060E94A4150E94280A8091A2
:102BD00036068823A1F081E00E94FD1B85E090E08D
:102BE0000E947B1987E090E00E947B1988E090E0CA
:102BF0000E947B190E94AC1B0E9498100BC085E0BC
:102C000090E00E94F81A80E00E94FD1B0E94AC1B1D
:102C10000E94321480E090E00895089580E090E0F2
:102C2000FC01EE0FFF1FE65EFC4F11821082019641
:102C300088309105A9F783B7887F826083BF12BE71
:102C400010923706109238061092390610923A0602
:102C50008EB5887F82608EBD1DBC1CBC85B5887F0B
:102C6000826085BD14BC10923F06109240061092FF
:102C70004106109242067894089583B7887F826057
:102C800083BF12BE10923706109238061092390692
:102C900010923A0608958EB5887F82608EBD1DBC65
:102CA0001CBC089585B5887F826085BD14BC1092D8
:102CB0003F06109240061092410610924206089577
:102CC00089B7806489BF089593B7987F982B93BF85
:102CD00008959EB5987F982B9EBD089595B5987FD1
:102CE000982B95BD089583B7E82FF0E0E770F0705A
:102CF000EE0FFF1FE952FC4F25913491C901089551
:102D00008EB5E82FF0E0E770F070EE0FFF1FE9528C
:102D1000FC4F25913491C901089585B5E82FF0E065
:102D2000E770F070EE0FFF1FED51FC4F25913491CD
:102D3000C9010895883040F4E82FF0E0EE0FFF1F3E
:102D4000E65EFC4F718360830895883040F4E82F7D
:102D5000F0E0EE0FFF1FE65EFC4F11821082089537
:102D6000EF92FF920F931F93CF93DF93EC0112B773
:102D700010923B0610923C0610923D0610923E06C1
:102D800083B7E82FF0E0E770F070EE0FFF1FE95215
:102D9000FC4F2591349140E050E060E07BE187EB0F
:102DA00090E00E94A31EB901CA01693B2DE8720799
:102DB00026E0820720E09207A0F437E2C131D30772
:102DC00080F49E0140E050E00E94511E28EE33E066
:102DD00040E050E00E94A31EC901DA01BC01CD0110
:102DE00021C028EE33E040E050E00E94A31ECA015B
:102DF000B9019E0140E050E00E94511E13C0809135
:102E00003B0690913C06A0913D06B0913E0685B7E9
:102E10008F7885BF85B7806885BF889585B78F77A0
:102E200085BF08C09B01AC01210F311D411D511D03
:102E300079018A0120913B0630913C0640913D0684
:102E400050913E0682B790E0A0E0B0E0542F432FAF
:102E5000322F2227822B932BA42BB52B8E159F0567
:102E6000A007B10760F2DF91CF911F910F91FF9002
:102E7000EF90089510923706109238061092390696
:102E800010923A0608952091370630913806409105
:102E9000390650913A06B901CA01089510923F06C9
:102EA0001092400610924106109242060895209119
:102EB0003F06309140064091410650914206B901CB
:102EC000CA010895893031F48FB582608FBD8FB506
:102ED0008E7F0AC08A3019F48FB5826002C08FB528
:102EE0008D7F8FBD8FB581608FBD1BBC1ABC19BC97
:102EF00018BC08952FB52E7F2FBD2FB522602FBD92
:102F00002EB528602EBD2EB520612EBD97BD86BD85
:102F10001BBC1ABC19BC18BC08958FB58D7F8FBD22
:102F20008FB58E7F8FBD8FB58F778FBD8FB58F7B20
:102F30008FBD8FB58F7D8FBD8FB58F7E8FBD08956F
:102F40008FB580688FBD8FB58F7B8FBD08958FB58E
:102F500080628FBD8FB58F7E8FBD08958FB58F77BF
:102F60008FBD8FB58F7B8FBD08958FB58F7D8FBD42
:102F70008FB58F7E8FBD089585B5877F85BD85B55B
:102F8000806485BD13BC089585B5806285BD85B517
:102F90008F7E85BD089585B58F7D85BD85B58F7E76
:102FA00085BD089583BD08959BBD8ABD089599BDD3
:102FB00088BD08951F920F920FB60F9211242F9380
:102FC0003F934F935F936F937F938F939F93AF93B1
:102FD000BF93EF93FF938091370690913806A091AD
:102FE0003906B0913A060196A11DB11D80933706AE
:102FF00090933806A0933906B0933A0680913B0629
:1030000090913C06A0913D06B0913E060196A11D0F
:10301000B11D80933B0690933C06A0933D06B09370
:103020003E0680911A0390911B03892B29F0E091B1
:103030001A03F0911B030995FF91EF91BF91AF9196
:103040009F918F917F916F915F914F913F912F91C0
:103050000F900FBE0F901F9018951F920F920FB6F2
:103060000F9211242F933F934F935F936F937F930E
:103070008F939F93AF93BF93EF93FF9380911C0324
:1030800090911D03892B29F0E0911C03F0911D0301
:103090000995FF91EF91BF91AF919F918F917F9192
:1030A0006F915F914F913F912F910F900FBE0F90B5
:1030B0001F9018951F920F920FB60F9211242F9305
:1030C0003F934F935F936F937F938F939F93AF93B0
:1030D000BF93EF93FF9380913F0690914006A0919C
:1030E0004106B09142060196A11DB11D80933F0695
:1030F00090934006A0934106B0934206809124032A
:1031000090912503892B29F0E0912403F091250368
:103110000995FF91EF91BF91AF919F918F917F9111
:103120006F915F914F913F912F910F900FBE0F9034
:103130001F9018951F920F920FB60F9211242F9384
:103140003F934F935F936F937F938F939F93AF932F
:10315000BF93EF93FF938091280390912903892BCC
:1031600029F0E0912803F09129030995FF91EF914F
:10317000BF91AF919F918F917F916F915F914F918F
:103180003F912F910F900FBE0F901F9018951F9297
:103190000F920FB60F9211242F933F934F935F938B
:1031A0006F937F938F939F93AF93BF93EF93FF930F
:1031B00080911E0390911F03892B29F0E0911E033B
:1031C000F0911F030995FF91EF91BF91AF919F91EE
:1031D0008F917F916F915F914F913F912F910F90C0
:1031E0000FBE0F901F9018951F920F920FB60F925F
:1031F00011242F933F934F935F936F937F938F93FC
:103200009F93AF93BF93EF93FF938091200390918F
:103210002103892B29F0E0912003F09121030995E6
:10322000FF91EF91BF91AF919F918F917F916F919E
:103230005F914F913F912F910F900FBE0F901F9074
:1032400018951F920F920FB60F9211242F933F9350
:103250004F935F936F937F938F939F93AF93BF939E
:10326000EF93FF938091220390912303892B29F000
:10327000E0912203F09123030995FF91EF91BF9113
:10328000AF919F918F917F916F915F914F913F91FE
:103290002F910F900FBE0F901F9018951F920F92B5
:1032A0000FB60F9211242F933F934F935F936F9319
:1032B0007F938F939F93AF93BF93EF93FF938091EF
:1032C000260390912703892B29F0E0912603F091A2
:1032D00027030995FF91EF91BF91AF919F918F9136
:1032E0007F916F915F914F913F912F910F900FBE02
:1032F0000F901F901895DC018B309105B0F4FC0104
:10330000EE0FFF1FE050FF4F0190F081E02DA65F10
:10331000BE4F81E090E00C9002C0880F991F0A9484
:10332000E2F7809520812823208308950895089549
:10333000EF92FF920F931F93CF93DF93C4E0D0E0FF
:1033400000E010E02FEFE22E21E0F22E4FEFDE0141
:10335000AD57BC4F8C918431B0F49E01220F331FC6
:10336000F901E257FC4FF182E0828F5F8C932C557C
:103370003C4F849FC001112464E170E00E94901EC4
:10338000F9017183608321960F5F1F4F073011058C
:10339000F1F6DF91CF911F910F91FF90EF9008957B
:1033A0008BE090E0609144060E94EF1E0895873004
:1033B000910579F08830910518F40597B1F406C0AD
:1033C0008830910549F00B9781F409C00E94AE172F
:1033D00008950E94B51708950E94CB1708950E9482
:1033E000AE170E94B5170E94CB1708952F923F92F7
:1033F0004F925F926F927F928F929F92AF92BF9205
:10340000CF92DF92EF92FF920F931F93CF93DF93B0
:10341000C7E7D3E0FEEA4F2EF3E05F2EE8E86E2E1A
:10342000E3E07E2E06E613E078E9872E73E0972E20
:103430006AEFC62E60E0D62E5FEEA52E50E0B52EC8
:1034400045E0E42EF12C33243A9434E1232E2E2D42
:103450008091440690E04BE050E0849FF001859F0E
:10346000F00D949FF00D1124EE0DFF1DE65DFC4F55
:10347000E081EE2359F0E13009F04EC08091110156
:1034800090911201895E934008F47DC0F80180811B
:10349000882361F4F5018081839DC0011124288176
:1034A00039812817390790F121E00DC0823071F47D
:1034B000F6018081839DC00111242881398128175C
:1034C000390720F123E0F801208320C0813071F416
:1034D000F6018081839DC00111242881398128173C
:1034E0003907A0F01982188222E0EDCF833071F401
:1034F000F5018081839DC00111242881398128171D
:10350000390720F019821882F80110828881998188
:103510000196998388833FC0E230A9F5F401808148
:103520009181009721F001979183808334C0F2014B
:10353000408151814115510509F1288139812F5F61
:103540003F4F39832883F601808190E0281739079F
:1035500010F119821882CA010197F20191838083C8
:103560002FEF30E0281B390BC9016CE070E00E949E
:103570007C1E822D861BF30180830DC0F301108217
:103580001982188208C0822F90E00E94D7191982F0
:103590001882F80110820894E11CF11C229622E0A6
:1035A00030E0420E531E0894611C711C0F5F1F4FC8
:1035B000820E931E0894C11CD11C0894A11CB11C3E
:1035C00039E0E316F10409F042CFDF91CF911F916A
:1035D0000F91FF90EF90DF90CF90BF90AF909F90B2
:1035E0008F907F906F905F904F903F902F900895B5
:1035F000CF93DF93EC018B309105B8F40E94D7197B
:10360000FE01EE0FFF1FE050FF4F0190F081E02D13
:10361000C65FDE4F81E090E0088002C0880F991FEE
:103620000A94E2F72081282B2083DF91CF9108951F
:10363000AC016430710534F4623071056CF477FFCD
:1036400020C00EC06630710524F06830710544F466
:1036500003C00E94F81A0895CA010E947B190895B8
:103660008091440690E02BE030E0829FF001839F40
:10367000F00D929FF00D1124E40FF51FE65DFC4F55
:1036800010820895EF92FF920F931F93CF93DF93D1
:10369000082F80FF05C080E090E00E94F81A04C067
:1036A00080E090E00E947B1901FF22C081E090E061
:1036B0000E94F81AC5E0D0E00BE010E080914406CB
:1036C00090E0809FF001819FF00D909FF00D1124FC
:1036D000EC0FFD1FE65DFC4F8081863021F48C2FBE
:1036E00090E00E94F81A2196C930D10539F72DC013
:1036F00081E090E00E947B19C5E0D0E0BBE0EB2EBA
:10370000F12C8091440690E08E9DF0018F9DF00D8C
:103710009E9DF00D1124EC0FFD1FE65DFC4F808196
:10372000863021F48C2F90E00E947B192196C930BD
:10373000D10539F702FF05C082E090E00E94F81A37
:1037400004C082E090E00E947B19DF91CF911F912D
:103750000F91FF90EF900895EF92FF920F931F93B8
:10376000CF93DF938BE090E00E94E71E80934406A6
:10377000853010F010924406AAE2B3E0E0E0F8E6EB
:1037800084918D93319683E0A136B807C9F7C4E0E0
:10379000D0E000E010E09BE0E92EF12CFE01EF59B3
:1037A000FC4F1082FE01EE0FFF1FE359FC4F118208
:1037B00010828091440690E08E9DF0018F9DF00D67
:1037C0009E9DF00D1124EC0FFD1FE65DFC4F608106
:1037D000CE0170E00E94181B21960F5F1F4F06302C
:1037E0001105E1F6809143060E94421BDF91CF91C3
:1037F0001F910F91FF90EF9008951F93182F8BE06A
:1038000090E00E947B19112319F083E090E002C040
:1038100080E090E00E94F81A88EE93E02CE231E01C
:10382000F9013197F1F70197D9F78BE090E00E9409
:103830007B1982E090E00E94F81A88EE93E02CE277
:1038400031E0F9013197F1F70197D9F78BE090E07A
:103850000E947B19112319F080E090E002C083E000
:1038600090E00E94F81A88EE93E02CE231E0F90132
:103870003197F1F70197D9F78BE090E00E947B191F
:103880001F910895CF92DF92EF92FF920F931F93B3
:10389000CF93DF93C5E0D0E000E010E034E0E32E0A
:1038A000F12CE822F9222BE0C22ED12C8091440683
:1038B000E114F104C1F090E08C9DF0018D9DF00DBC
:1038C0009C9DF00D1124EC0FFD1FE65DFC4FE08187
:1038D000E33001F1E43019F0E130F9F41BC0CE011E
:1038E0000E94D71913C090E08C9DF0018D9DF00DC2
:1038F0009C9DF00D1124EC0FFD1FE65DFC4FE08157
:10390000E33021F0E43031F0E13039F4CE010E94AF
:103910007B1903C0CE010E94F81A21960F5F1F4F3A
:103920000430110519F6DF91CF911F910F91FF908F
:10393000EF90DF90CF9008952F923F924F925F9239
:103940006F927F928F929F92AF92BF92CF92DF92AF
:10395000EF92FF920F931F93DF93CF93CDB7DEB714
:103960002C970FB6F894DEBF0FBECDBF885680935C
:10397000440683EF93E00E94EE0CA89522EA34E01F
:1039800080E090E044E150E06FEF0BC06193E217FC
:10399000F307E1F701969F012C5E3F4F86309105BA
:1039A00051F0849FF001859FF00D949FF00D11243C
:1039B000E257FB4FEBCF83ED94E00E94EE0CA8950D
:1039C0000E94F70690E00E94421C0E94F619B6E79A
:1039D0004B2EB4E05B2E26E035E03A832983662443
:1039E000772422243324D2018D919D910D90BC9196
:1039F000A02D8F839887A987BA87E981FA81C08033
:103A0000D180E280F380D201CD92DD92ED92FC92E2
:103A10001397E4E1F0E06E9E80016F9E100D7E9E94
:103A2000100D112402571B4F882499249C2D91704E
:103A30002F81388549855A8556954795379527951D
:103A40002B833C834D835E83F694E794D794C7948D
:103A5000E091D600F091D700E20DF31DE80DF91DBD
:103A60008491882309F4F5C03F8130FD05C0992376
:103A700039F0D8011C9204C0992311F4F801108286
:103A8000D8012C9127FDE5C02F5F2C9321502430C5
:103A90000CF4DFC0992309F4D9C0843709F066C05B
:103AA00083ED94E00E94EE0CA8950BEA14E0E5E0AB
:103AB000AE2EB12C7BE0E72EF12C6FE0D62EB6E0D7
:103AC000AB16C9F0C8010E94EE0C8091440690E04C
:103AD0008E9DF0018F9DF00D9E9DF00D1124EA0D3D
:103AE000FB1DE65DFC4F80818D9DC00111248D5C26
:103AF0009B4F0E94EE0C085F1F4F0894A11CB11C45
:103B0000E4E00B3C1E07D9F683ED94E00E94EE0C36
:103B1000A89583E194E00E94EE0C8AE293E040E0F5
:103B200058E660E070E00E94810BA8958BE090E081
:103B3000609144060E94EF1EA8952C960FB6F8944B
:103B4000DEBF0FBECDBFCF91DF911F910F91FF90D0
:103B5000EF90DF90CF90BF90AF909F908F907F902D
:103B60006F905F904F903F902F900895282F275689
:103B70008091440690E0A22EBB244BE050E0849F4D
:103B8000F001859FF00D949FF00D1124EA0DFB1DAF
:103B9000E65DFC4F80818F5F8083883008F0108263
:103BA000A895822F90E053E0880F991F5A95E1F76E
:103BB0008D579B4F0E94EE0CA8958091440690E093
:103BC000ABE0B0E08A9FF0018B9FF00D9A9FF00D63
:103BD0001124EA0DFB1DE65DFC4F8081BFE08B9F49
:103BE000C00111248D5C9B4F0E94EE0C47E7A42E70
:103BF00043E0B42EE5E0F0E0FC87EB87EB85FC8545
:103C0000EF59FC4F1082D5011D921D925D018091EC
:103C1000440690E02BE030E0829FF001839FF00D9E
:103C2000929FF00D11244B855C85E40FF51FE65D36
:103C3000FC4F60818B8590E070E00E94181B8B85A3
:103C40009C8501969C878B870997C1F6EFEFD80179
:103C5000EC930894811C911C0F5F1F4FF4E18F16A9
:103C6000910449F02B813C814D815E812F833887FF
:103C700049875A87DBCE0894611C711C44E050E0F0
:103C8000440E551E89819A8104969A838983A4E102
:103C9000B0E02A0E3B1EB6E06B16710409F0A3CE0D
:103CA0008ECE629FD001739FF001829FE00DF11DC7
:103CB000649FE00DF11D929FF00D839FF00D749FA6
:103CC000F00D659FF00D9927729FB00DE11DF91F52
:103CD000639FB00DE11DF91FBD01CF0111240895AF
:103CE000991B79E004C0991F961708F0961B881F4E
:103CF0007A95C9F780950895AA1BBB1B51E107C0AF
:103D0000AA1FBB1FA617B70710F0A61BB70B881F6B
:103D1000991F5A95A9F780959095BC01CD010895FA
:103D200097FB092E07260AD077FD04D0E5DF06D0E1
:103D300000201AF4709561957F4F0895F6F79095DD
:103D400081959F4F0895A1E21A2EAA1BBB1BFD016E
:103D50000DC0AA1FBB1FEE1FFF1FA217B307E4076A
:103D6000F50720F0A21BB30BE40BF50B661F771FC2
:103D7000881F991F1A9469F76095709580959095A2
:103D80009B01AC01BD01CF01089597FB092E0526CB
:103D90000ED057FD04D0D7DF0AD0001C38F4509560
:103DA0004095309521953F4F4F4F5F4F0895F6F75F
:103DB00090958095709561957F4F8F4F9F4F089597
:103DC000DC0101C06D9341505040E0F70895E19946
:103DD000FECF9FBB8EBBE09A99278DB30895262F07
:103DE000E199FECF9FBB8EBB2DBB0FB6F894E29A34
:0C3DF000E19A0FBE01960895F894FFCFF1
:103DFC005AFF80800B080F0F120B080F0F120B08C5
:103E0C000F0F120B080F0F120B080F0F12000000F0
:103E1C000000AA19AA061300000000000000000010
:103E2C000000000000000000000000000000000086
:103E3C00A70BA70C0A0BA71EA70000000000000090
:103E4C000000000000000000000000000000006303
:103E5C0000000064000000650000006600002D00FA
:103E6C000070000001000200040008001000200097
:103E7C004000800001020A0000000101010103035F
:103E8C0003030303030101010105050505050505F0
:103E9C00350035003500350035000000000000000D
:107C0000822F8F7711F4F8947894F89478942E5FFB
:107C10003F4F4F4F5F4F822F8F7711F4F894789436
:067C2000925071F7089577
:00000001FF
