:100000000EC028C027C026C025C024C023C022C0DF
:1000100021C020C01FC01EC01DC060C080C01124F0
:100020001FBECFE5D2E0DEBFCDBF10E0A0E6B0E05E
:10003000EAE8F3E002C005900D92A236B107D9F7C5
:1000400013E0A2E6B0E001C01D92AE3EB107E1F7B9
:100050006FD199C1D5CF80939201C29AC09ABA9AB2
:10006000109291011092BF0210926400B89888EA31
:100070008DB98EEE8EB908958091640090E088234A
:1000800009F491E0892F08959091BF02F89480912E
:100090006400882379F0759B08C010926400B898BA
:1000A00088EA8DB98EEE8EB905C0809164008073A8
:1000B00009F090E07894892F08951092BF02089576
:1000C000F894809164008E7011F481E00895789422
:1000D00080E0089580939101789408951F920F9283
:1000E0000FB60F9211248F93B8980AC0B09B08C026
:1000F00010926400B89888EA8DB98EEE8EB909C066
:10010000B299F4CF80EE8EB988EF8DB981E08093FB
:1001100064008F910F900FBE0F901F9018951F9243
:100120000F920FB60F9211242F933F934F938F93FB
:100130009F93EF93FF9380916400813031F54FB12D
:10014000442351F0242F30E02E7F8091920190E0E3
:100150002817390709F06AC040FF09C08091910152
:10016000882309F463C01092630082E008C0809184
:10017000BF02882309F05AC01092910180E1809358
:1001800064001FB8B89A8EE457C080916400823032
:10019000C9F4E0916300F0E0EB59FF4F80818FB923
:1001A000809163008F5F80936300909163008091E2
:1001B0009101981710F010926300B89A80E48EB9FC
:1001C00084E031C080916400843031F41FB8B89865
:1001D0008EE48EB988E027C080916400883021F4D5
:1001E0008FB1882319F5D5CF80916400803129F42F
:1001F000B89880E48EB980E216C0809164008032A5
:10020000E1F48091BF028091BF02E82FF0E09FB13E
:10021000ED56FE4F90838F5F8093BF021FB8B89A50
:100220008EE48EB980E18093640007C01092640070
:10023000B89888EA8DB98EEE8EB9FF91EF919F91B3
:100240008F914F913F912F910F900FBE0F901F9064
:10025000189521E030E002C0220F331F8A95E2F7A3
:10026000209362000895FC019091620088B3392FB9
:100270003095382328B3292B9FB7F8941DC081915E
:1002800048E028BB87FF38BB880F000000C038BBA0
:10029000000000C000C000C000C000C000C000C01E
:1002A00000C000C000C000C000C000C000C000C04E
:1002B0004A9539F7615070406115710501F79FBF8C
:1002C00008959B01660F771F620F731FCCDF85E8CF
:1002D0008A95F1F70895C7DF0895F3DF08958091B7
:1002E000C0029091C10201979093C1028093C00215
:1002F000892B41F488B390E1892788BB88B392E0C9
:10030000892788BB0895282FDB0190E007C0E92FDB
:10031000F0E0EE53FD4F8D9180839F5F9217B8F30D
:100320002093600082EC92E0622F70E0D4DF0895A9
:1003300080E886BD16BC87B3826187BB88B38261C3
:1003400088BB87B38A6187BB80EB85DE83E081DF72
:10035000789480E090E02AEFFC01ED56FE4F108289
:100360001182228303968C339105B1F78DE280933D
:10037000BF028091BF0263E971E0C5DF9EDEAFDF9F
:0A03800080E090E00895F894FFCFAC
:02038A002C0045
:00000001FF
