:100000000C9474030C94AE030C9493030C9493031C
:100010000C9493030C9493030C9493030C94930308
:100020000C9493030C94FB090C945F080C94CA097C
:100030000C9437090C9468090C942E080C9406094A
:100040000C94CB070C9493030C9493030C9493039C
:100050000C9493030C9493030C9493030C949303C8
:100060000C9499090C94BF0A0C942C0A0C945D0A08
:100070000C948E0A0C94D5080C9493030C9493035F
:100080000C9493030C9493030C949303D913C91306
:10009000FD130814CB13CD13D113FD13D513D713B0
:1000A000D313E113F313DB13F713FB130414FD1342
:1000B000FD13FD13FD13FD13FD13FD13FD13FD13C0
:1000C000F113EF13F513DF13F913FF130614FD13E8
:1000D000FD13FD13FD13FD13FD13FD13FD13FD13A0
:1000E000FD13FD13FD13FD13FD13FD13FD13FD1390
:1000F000FD13FD13FD13FD13FD13FD13FD13FD1380
:10010000FD13E313EB13E713CF13DD130814FD13F3
:10011000FD13FD13FD13FD13FD13FD13FD13FD135F
:10012000FD13FD13FD13FD13FD13FD13FD13FD134F
:10013000FD13FD13FD13FD13FD13FD13FD13FD133F
:10014000FD13E513ED13E913061400000100080088
:1001500040000001000400000100080020004000F1
:100160008000000100040403090412034B00420054
:1001700044004D004F0044000E034D0035002D009B
:10018000390032004D001201100100000008424207
:1001900031E10001010200010000FC001C322123BA
:1001A000242B3433433B424B3A31444D152D1B2C09
:1001B0003C2A1D22351A161E26252E363D3E464562
:1001C0005A76660D294E55545B5D5D4C520E414981
:1001D0004A580506040C030B830A010978077C7E44
:1001E00077706C7D71697A746B7275774A7C7B79F4
:1001F0005A69727A6B73746C757D7071612F370FE9
:1002000008101820283038404850575F0000000080
:10021000000000000000000000000000006D005120
:10022000136A646727000000F2F163625F00000058
:100230000000000000000000000000000014121187
:100240001F14591146480048919000D1D2D300A9FB
:10025000AAADAC6546494A4B4C4D4E52504F515495
:1002600058D1D2D3C1C4C5C6C7C8C9CAB3B4B5B6BC
:10027000B7BABBC0C2C3CCCDCECFCB00494C4A4DE0
:100280004B4EA9AD65504F5251540029003A3B3CAA
:100290003D3E3F404142434445FF464748351E1FCF
:1002A00020212223242526272D2E2A00494A4B2BA4
:1002B000141A0815171C180C12132F3031004C4D4E
:1002C0004E39041607090A0B0D0E0F3334280000AF
:1002D000000000A71D1B061905111036373800ABAA
:1002E0000000005200A6A9A80000002C0000ACAD40
:1002F00065AA000050514F293A3B3C3D3E3F4041EA
:10030000424344450000464748351E1F2021222312
:10031000242526272D2E2A005F60612B141A08152C
:10032000171C180C12132F3031005C5D5E39041657
:1003300007090A0B0D0E0F3334280000595A5BA72A
:100340001D1B061905111036373800AB000062522C
:1003500063A6A9A80000002C0000ACAD65AA0000AF
:1003600050514F1F3A3B3C3D3E3F40414243444584
:100370000000464748351E1F20212223242526271A
:100380002D2E2A00494A4B2B141A0815171C180C3D
:1003900012132F3031004C4D4E39041607090A0B49
:1003A0000D0E0F3334280000000000A71D1B061996
:1003B00005111036373800AB0000005200A6A9A87E
:1003C0000000002C0000ACAD65AA000050514F2980
:1003D0003A3B3C3D3E3F4041424344454CFF4A4B43
:1003E00053351E1F20212223242526272D2E2A00A7
:1003F0004D4E562B141A0815171C180C12132F30BB
:1004000031005F606139041607090A0B0D0E0F33C6
:10041000342800005C5D5EA71D1B0619051110360F
:10042000373800AB5200595A5BA6A9A80000002C2F
:100430000000ACAD65AA50514F6263B3B4B5B6B716
:10044000B8B9BABBBCBDBEBFC0C1C2C3C4C5C6C7B4
:10045000C8C9CACBCCCDCECFD0D1D2D3D3B0B12B9B
:10046000141A0815171C180C12132F3031004C4D9C
:100470004E39041607090A0B0D0E0F3334280000FD
:10048000000000A71D1B061905111036373800ABF8
:100490000000005200A6A9A80000002C0000ACAD8E
:1004A00065AA000050514F223A3B3C3D3E3F40413F
:1004B000424344450000464748351E1F2021222361
:1004C000242526272D2E2A00494A4B2B141A0815BD
:1004D000171C180C12132F3031004C4D4E390416D6
:1004E00007090A0B0D0E0F3334280000000000A787
:1004F0001D1B061905111036373800AB00000052DD
:1005000000A6A9A80000002C0000ACAD65AA000060
:1005100050514F233A3B3C3D3E3F404142434445CE
:100520000000464748351E1F202122232425262768
:100530002D2E2A00494A4B2B141A0815171C180C8B
:1005400012132F3031004C4D4E39041607090A0B97
:100550000D0E0F3334280000000000A71D1B0619E4
:1005600005111036373800AB0000005200A6A9A8CC
:100570000000002C0000ACAD65AA000050514FF700
:10058000F8F9FAFBEFF0F1F2F3F4F5F64CFF4A4B11
:10059000FE351E1F20212223242526272D2E2A004A
:1005A0005554572B141A0815171C180C12132F30FA
:1005B00031005F606139041607090A0B0D0E0F3315
:1005C000342800005C5D5EA71D1B0619051110365E
:1005D000373800AB0000595A5BA6A9A80000002CD0
:1005E0000000ACAD65AA50514F626305010906A138
:1005F0000175019508050719E029E7150025018116
:1006000002950175088103950575010508190129F1
:10061000059102950175039103950675081500254E
:10062000FF0507190029FF8100C005010902A1018A
:1006300085010901A10005091901290515002501F8
:100640007501950581027503950181030501093046
:1006500009311581257F75089502810609381581B4
:10066000257F35004500750895018106050C0A387F
:10067000021581257F750895018106C0C005010915
:1006800080A1018502150125B7190129B7751095BB
:10069000018100C0050C0901A10185031501269CFB
:1006A0000219012A9C02751095018100C009023BC4
:1006B0000002010080FA09040000010301010009A1
:1006C0002101010001223F000705810308000A09FA
:1006D000040100010300000009210101000122833F
:1006E000000705830308000A11241FBECFEFD0E1E5
:1006F000DEBFCDBF11E0A0E0B1E0EAEEF6E300E03E
:100700000BBF02C007900D92A23DB107D9F715E0CB
:10071000A2EDB1E001C01D92A030B107E1F70E9447
:100720009A1A0C94731B0C940000A82FB92F80E028
:1007300090E041E050EA609530E009C02D918227B9
:100740009795879510F084279527305EC8F36F5FE3
:10075000A8F30895EADF8D939D930895CF93CFB7C3
:10076000CF93C395819BE9F7819B09C0819B07C00B
:10077000819B05C0819B03C0819B01C0A3C0DF9307
:10078000C0918B03DD27CE56DC4F819B02C0DF91E9
:10079000EBCF2F930F931F9300B32FEF01FB20F9A3
:1007A0004F933F9310B34FEF012701FB21F93BE03B
:1007B00031C04E7F012F10B3216028C0102F4D7F14
:1007C0002260000000B329C04B7F2460012F00008D
:1007D00010B32BC010B3477F28602AC04F7E00B3F0
:1007E00020612CC04F7D10B320622FC04F7B00B31F
:1007F000206432C0422700B349934FEF0000102716
:1008000011FB20F910B31370C9F1297F91F2012770
:1008100001FB21F900B3237F89F2315058F11027F1
:1008200011FB22F910B3277E79F2012701FB23F98E
:100830002F7C81F200B3102711FB24F92F7971F27C
:1008400000C010B3012701FB25F92F7359F200C036
:1008500000B3102711FB26F9223040F200C010B37C
:10086000012701FB27F9243028F64F77206810B3C1
:100870000000F9CF11E018BF002719C03B50319597
:10088000C31BD04011E018BF0881033CF9F00B34C2
:10089000E9F0209189031981110F1213EDCF4A81DC
:1008A000441F093641F10D3211F0013E29F7009342
:1008B00090033F914F911F910F912F91DF91C8B7F6
:1008C000C0FD4FCFCF91CFBFCF911895209190030E
:1008D000222379F310918E031123C1F53430C2F134
:1008E00030938E0320938A0310918B033BE0311BDE
:1008F00030938B032DC000918E0301303CF50AE547
:100900004F7049F43091000134FD24C00093000180
:10091000C2E7D3E023C0433049F030917D0334FD7A
:1009200019C000937D03CEE7D3E018C03091A8032F
:1009300034FD10C00093A803C9EAD3E00FC0279587
:10094000A8F45150A9F4220F0000F9CF4AE503C0E2
:1009500042ED01C0432FC4E1D0E032E011B3136097
:10096000919A11BB02B320E413E05F93012756E094
:1009700002BB279520F4515021F4220FF9CF012713
:1009800056E000003B5A02BBD0F2279528F45150A4
:1009900029F4220F0000F9CF012756E0279502BB6A
:1009A00020F4515021F4220FF9CF012756E029916C
:1009B000332302BB21F60C7F10918F03110FC65118
:1009C000D04002BB11F01093890311E018BF026000
:1009D00011B31C7F402F4C7F5F9100C000C002BB51
:1009E00011BB42BB66CF089583B7887F846083BF05
:1009F00012BE10925E0310925F0310926003109279
:100A0000610310926E0310926F03109270031092A4
:100A1000710308958EB5887F84608EBD1DBC1CBC9B
:100A2000089585B5887F846085BD14BC10926A03E3
:100A300010926B0310926C0310926D03109262037C
:100A4000109263031092640310926503089580E08E
:100A500090E0FC01EE0FFF1FEE52FE4F118210825C
:100A600001968E309105A9F70E94F4048EB5887F17
:100A700084608EBD1DBC1CBC0E94110580918A0043
:100A8000887F846080938A00109289001092880089
:100A90007894089587B7806487BF0895EAE8F0E006
:100AA0008081887F84608083109289001092880002
:100AB000089593B7987F982B93BF08959EB5987F1C
:100AC000982B9EBD089595B5987F982B95BD089558
:100AD000EAE8F0E09081987F982B9083089583B79F
:100AE000E82FF0E0E770F070EE0FFF1FE65BFE4FBF
:100AF00025913491C90108958EB5E82FF0E0E77093
:100B0000F070EE0FFF1FE65BFE4F25913491C90197
:100B1000089585B5E82FF0E0E770F070EE0FFF1F45
:100B2000E65BFE4F25913491C901089580918A00BA
:100B3000E82FF0E0E770F070EE0FFF1FE65BFE4F6E
:100B400025913491C90108958E3040F4E82FF0E0EA
:100B5000EE0FFF1FEE52FE4F7183608308958E30BB
:100B600040F4E82FF0E0EE0FFF1FEE52FE4F11822F
:100B700010820895EF92FF920F931F93CF93DF930C
:100B8000EC0114B51092660310926703109268038B
:100B90001092690385B5E82FF0E0E770F070EE0F72
:100BA000FF1FE65BFE4F2591349140E050E060E08E
:100BB0007BE187EB90E00E941A1BB901CA01693BF7
:100BC0002DE8720726E0820720E09207A0F437E2C2
:100BD000C131D30780F49E0140E050E00E94C81A62
:100BE00028EE33E040E050E00E941A1BC901DA0110
:100BF000BC01CD0121C028EE33E040E050E00E946E
:100C00001A1BCA01B9019E0140E050E00E94C81AB7
:100C100013C08091660390916703A0916803B0911F
:100C2000690385B7837E85BF85B7806285BF889558
:100C300085B78F7D85BF08C09B01AC01210F311D99
:100C4000411D511D79018A0120916603309167038E
:100C5000409168035091690384B590E0A0E0B0E052
:100C6000542F432F322F2227822B932BA42BB52BCB
:100C70008E159F05A007B10760F2DF91CF911F91FC
:100C80000F91FF90EF90089510925E0310925F0312
:100C9000109260031092610310926E0310926F0322
:100CA0001092700310927103089520915E033091A9
:100CB0005F034091600350916103B901CA01089537
:100CC00010926A0310926B0310926C0310926D03E2
:100CD00010926203109263031092640310926503F2
:100CE000089520916A0330916B0340916C035091F9
:100CF0006D03B901CA010895893031F483B7886062
:100D000083BF83B78F7B0AC08A3019F483B78860AA
:100D100002C083B7877F83BF83B7806483BF11BE60
:100D2000089583B7806283BF83B78F7E83BF0895A2
:100D300083B78F7D83BF83B78F7E83BF089581BFC5
:100D40000895893031F48FB582608FBD8FB58E7F65
:100D50000AC08A3019F48FB5826002C08FB58D7FCA
:100D60008FBD8FB581608FBD1BBC1ABC19BC18BC70
:100D7000109279001092780008952FB52E7F2FBD24
:100D80002FB522602FBD2EB528602EBD2EB5206157
:100D90002EBD97BD86BD1BBC1ABC19BC18BC1092D9
:100DA00079001092780008958FB58D7F8FBD8FB533
:100DB0008E7F8FBD8FB58F778FBD8FB58F7B8FBDAA
:100DC0008FB58F7D8FBD8FB58F7E8FBD8FB5877FA0
:100DD0008FBD8FB58B7F8FBD08958FB580688FBD18
:100DE0008FB58F7B8FBD08958FB580628FBD8FB516
:100DF0008F7E8FBD08958FB588608FBD8FB58B7F37
:100E00008FBD08958FB58F778FBD8FB58F7B8FBDC9
:100E100008958FB58F7D8FBD8FB58F7E8FBD08955F
:100E20008FB5877F8FBD8FB58B7F8FBD08959BBD9D
:100E30008ABD089599BD88BD0895909379008093E7
:100E400078000895893049F480918B008260809306
:100E50008B0080918B008E7F0EC08A3021F48091B0
:100E60008B00826003C080918B008D7F80938B000C
:100E700080918B00816080938B001092870010928C
:100E800086001092850010928400109283001092C8
:100E900082000895EBE8F0E020812E7F20832081FE
:100EA00022602083EAE8F0E020812860208320810E
:100EB00020612083909381008093800010928700AE
:100EC0001092860010928500109284001092830088
:100ED000109282000895EBE8F0E080818D7F80839E
:100EE00080818E7F808380818F77808380818F7BDC
:100EF000808380818F7D808380818F7E80838081CD
:100F0000877F808380818B7F80830895EBE8F0E08A
:100F100080818068808380818F7B80830895EBE867
:100F2000F0E080818062808380818F7E808308955D
:100F3000EBE8F0E080818860808380818B7F808314
:100F40000895EBE8F0E080818F77808380818F7B4C
:100F500080830895EBE8F0E080818F7D808380813D
:100F60008F7E80830895EBE8F0E08081877F808327
:100F700080818B7F80830895909387008093860083
:100F80000895909385008093840008959093830042
:100F90008093820008951F920F920FB60F920BB6A6
:100FA0000F9211242F933F934F935F936F937F93EF
:100FB0008F939F93AF93BF93EF93FF9380915E03C3
:100FC00090915F03A0916003B09161030196A11D10
:100FD000B11D80935E0390935F03A0936003B09371
:100FE000610380915E0390915F03A0916003B091D3
:100FF00061030097A105B10599F480916E0390916A
:101000006F03A0917003B09171030196A11DB11DF2
:1010100080936E0390936F03A0937003B09371035A
:101020008091D2019091D301892B29F0E091D201D6
:10103000F091D3010995FF91EF91BF91AF919F91ED
:101040008F917F916F915F914F913F912F910F9071
:101050000BBE0F900FBE0F901F9018951F920F920E
:101060000FB60F920BB60F9211242F933F934F930D
:101070005F936F937F938F939F93AF93BF93EF9300
:10108000FF938091D6019091D701892B29F0E091AF
:10109000D601F091D7010995FF91EF91BF91AF91E2
:1010A0009F918F917F916F915F914F913F912F9180
:1010B0000F900BBE0F900FBE0F901F9018951F92B0
:1010C0000F920FB60F920BB60F9211242F933F93EE
:1010D0004F935F936F937F938F939F93AF93BF9340
:1010E000EF93FF9380916A0390916B03A0916C033F
:1010F000B0916D030196A11DB11D80936A03909379
:101100006B03A0936C03B0936D0380916A0390917D
:101110006B03A0916C03B0916D030097A105B1051D
:1011200099F48091620390916303A0916403B0915C
:1011300065030196A11DB11D809362039093630323
:10114000A0936403B0936503809166039091670355
:10115000A0916803B09169030196A11DB11D809310
:10116000660390936703A0936803B093690380912B
:10117000E0019091E101892B29F0E091E001F091EB
:10118000E1010995FF91EF91BF91AF919F918F91EF
:101190007F916F915F914F913F912F910F900BBE77
:1011A0000F900FBE0F901F9018951F920F920FB6C1
:1011B0000F920BB60F9211242F933F934F935F938F
:1011C0006F937F938F939F93AF93BF93EF93FF930F
:1011D0008091E4019091E501892B29F0E091E401EF
:1011E000F091E5010995FF91EF91BF91AF919F912A
:1011F0008F917F916F915F914F913F912F910F90C0
:101200000BBE0F900FBE0F901F9018951F920F925C
:101210000FB60F920BB60F9211242F933F934F935B
:101220005F936F937F938F939F93AF93BF93EF934E
:10123000FF938091D4019091D501892B29F0E09101
:10124000D401F091D5010995FF91EF91BF91AF9134
:101250009F918F917F916F915F914F913F912F91CE
:101260000F900BBE0F900FBE0F901F9018951F92FE
:101270000F920FB60F920BB60F9211242F933F933C
:101280004F935F936F937F938F939F93AF93BF938E
:10129000EF93FF938091D8019091D901892B29F088
:1012A000E091D801F091D9010995FF91EF91BF919B
:1012B000AF919F918F917F916F915F914F913F91EE
:1012C0002F910F900BBE0F900FBE0F901F9018958F
:1012D0001F920F920FB60F920BB60F9211242F93FD
:1012E0003F934F935F936F937F938F939F93AF93AE
:1012F000BF93EF93FF938091DA019091DB01892BEB
:1013000029F0E091DA01F091DB010995FF91EF916D
:10131000BF91AF919F918F917F916F915F914F910D
:101320003F912F910F900BBE0F900FBE0F901F900B
:1013300018951F920F920FB60F920BB60F921124B1
:101340002F933F934F935F936F937F938F939F93CD
:10135000AF93BF93EF93FF938091DC019091DD01F8
:10136000892B29F0E091DC01F091DD010995FF91D5
:10137000EF91BF91AF919F918F917F916F915F910D
:101380004F913F912F910F900BBE0F900FBE0F907A
:101390001F9018951F920F920FB60F920BB60F92D7
:1013A00011242F933F934F935F936F937F938F936A
:1013B0009F93AF93BF93EF93FF938091DE01909142
:1013C000DF01892B29F0E091DE01F091DF01099521
:1013D000FF91EF91BF91AF919F918F917F916F910D
:1013E0005F914F913F912F910F900BBE0F900FBEC9
:1013F0000F901F9018951F920F920FB60F920BB679
:101400000F9211242F933F934F935F936F937F938A
:101410008F939F93AF93BF93EF93FF938091E201DC
:101420009091E301892B29F0E091E201F091E30131
:101430000995FF91EF91BF91AF919F918F917F910E
:101440006F915F914F913F912F910F900BBE0F9035
:101450000FBE0F901F9018951F920F920FB60F920C
:101460000BB60F9211242F933F934F935F936F937B
:101470007F938F939F93AF93BF93EF93FF9380914D
:10148000E6019091E701892B29F0E091E601F091C6
:10149000E7010995FF91EF91BF91AF919F918F91D6
:1014A0007F916F915F914F913F912F910F900BBE64
:1014B0000F900FBE0F901F9018951F920F920FB6AE
:1014C0000F920BB60F9211242F933F934F935F937C
:1014D0006F937F938F939F93AF93BF93EF93FF93FC
:1014E0008091E8019091E901892B29F0E091E801D0
:1014F000F091E9010995FF91EF91BF91AF919F9113
:101500008F917F916F915F914F913F912F910F90AC
:101510000BBE0F900FBE0F901F9018951F920F9249
:101520000FB60F920BB60F9211242F933F934F9348
:101530005F936F937F938F939F93AF93BF93EF933B
:10154000FF938091EA019091EB01892B29F0E091C2
:10155000EA01F091EB010995FF91EF91BF91AF91F5
:101560009F918F917F916F915F914F913F912F91BB
:101570000F900BBE0F900FBE0F901F9018951F92EB
:101580000F920FB60F920BB60F9211242F933F9329
:101590004F935F936F937F938F939F93AF93BF937B
:1015A000EF93FF938091EC019091ED01892B29F04D
:1015B000E091EC01F091ED010995FF91EF91BF9160
:1015C000AF919F918F917F916F915F914F913F91DB
:1015D0002F910F900BBE0F900FBE0F901F9018957C
:1015E000EAE6F0E080818260808389B7816089BF0C
:1015F0008BE480937E038093A9038AE580937D0327
:101600008093A80308951F93CF93DF9360918E0377
:10161000635067FDAFC080918B03CCE0D0E0C81B66
:10162000D109CE56DC4F80918A038D3209F08FC0EC
:10163000683009F09DC083EC809372038AE5809343
:1016400000011092EE018881807629F0CE010E947F
:101650005B13282F69C09A8110927B0389818823AC
:1016600031F410927C038BE793E022E058C0853080
:1016700019F490938F0350C08630B9F58B81813077
:1016800041F486E891E090938D0380938C0322E1EE
:1016900028C0823001F18330D1F48A81882341F45B
:1016A00086E691E090938D0380938C0324E019C02B
:1016B000813019F48AE691E004C0823089F488E729
:1016C00091E090938D0380938C032EE00AC08132C9
:1016D00011F0823229F4CE010E942113282F01C07B
:1016E00020E080E48093EE011FC0883019F481E986
:1016F00093E009C0893019F4909391030DC08A30AA
:1017000021F48BE793E021E00AC08B3029F48BE4CD
:1017100080937E038093A9038BE793E020E090936E
:101720008D0380938C0309C02F3F39F4888187FD96
:101730002E8180E88093EE0106C08F81882319F402
:101740008E81821708F0822F8093010111C0809151
:10175000EE0187FF0DC0CE010E94E9158F3F21F4F5
:101760008EE18093000104C0882311F010920101E2
:1017700010928E038091000184FF46C08091010188
:101780008F3F09F441C0182F893008F018E0811B01
:10179000809301018091720398E8892780937203F6
:1017A000112321F120918C0330918D038091EE0162
:1017B00086FF0AC0912FF901A3E7B3E084918D93CE
:1017C00031969150D9F708C0912FD901E3E7F3E0A2
:1017D0008D9181939150E1F7C90101961150810FCC
:1017E000911D1F5F90938D0380938C0383E793E09B
:1017F000612F0E94AA03612F6C5F6C3019F08FEF8C
:10180000809301016093000194E180B3837031F40F
:101810009150D9F710928F0310928903DF91CF91E5
:101820001F9108951F93CF93DF93DC01162FEA01D8
:10183000888184FF05C0898198E88927898302C04F
:101840008AE58883AE014E5F5F4F212FFA018D91AB
:10185000819321501216DCF3CA01612F0E94AA0362
:101860001C5F1883DF91CF911F91089548EA53E0E0
:101870000E94120C08954DE753E00E94120C089547
:10188000382F3F7082958F7041E050E0BA0102C05E
:10189000660F771F8A95E2F7CB016ABB80958BBBF9
:1018A00088E28A95F1F7323040F42091630002C05B
:1018B000440F551F3A95E2F716C0832F83508730A7
:1018C00028F423B3832F90E0029708C0832F8A5017
:1018D000883058F420B1832F90E00A9702C0440F5B
:1018E000551F8A95E2F720952423222311F087E0E3
:1018F00008958091F10108950F931F93CF93DF9383
:10190000873F30F4833F58F58F3E08F45AC007C034
:101910008E3F08F44CC08E3F09F053C051C08F5E1B
:101920008093F204C0E0D0E00BE010E08091F2047C
:1019300090E0809FF001819FF00D909FF00D1124A9
:10194000EC0FFD1FEE5EFE4F60818C2F90E070E08B
:101950000E9497102196CB30D10541F734C0809179
:10196000F2048F5F8093F2048450853018F084E095
:101970008093F204C0E0D0E00BE010E08091F2042C
:1019800090E0809FF001819FF00D909FF00D112459
:10199000EC0FFD1FEE5EFE4F60818C2F90E070E03B
:1019A0000E9497102196CB30D10541F70CC0682FCB
:1019B000675F6093F1018DE090E00E94661B03C0B9
:1019C000FFCF80E001C081E0DF91CF911F910F91A7
:1019D00008952F923F924F925F926F927F928F92D3
:1019E0009F92AF92BF92CF92DF92EF92FF920F93AE
:1019F0001F93CF93DF938091EF019091F0010196B7
:101A00009093F0018093EF0100E0C0E0D0E061E04E
:101A1000E62EF12C58E2C52E97010C2E02C0220FA3
:101A2000331F0A94E2F72ABB822F80958BBB8C2D43
:101A30008A95F1F710916300109573B3709530B1EA
:101A40003095E2E3F4E040E050E0AEEFBFEFD22E9D
:101A5000D094423048F4C701042E02C0880F991F69
:101A60000A94E2F7612F17C0A83048F4C7010A2E84
:101A700002C0880F991F0A94E2F7672F0CC04A50E2
:101A80005040C701042E02C0880F991F0A94E2F744
:101A9000465F5F4F632F682309F004609081822FB7
:101AA000892331F0662349F49D219083016005C0AC
:101AB000662319F0922B908302604F5F5F4F31963F
:101AC00011964231510529F62196C630D10509F00B
:101AD000A3CF10E0C8010E9406110E947C11037080
:101AE0001070012B11F080E093C00E940C158091C2
:101AF00044040E94400C482E8CE6489E500111245C
:101B00008BE892E0A80EB91E5524CC24DD2441E0D8
:101B1000242E312C51C0F701E05EFB4F9081F7017C
:101B2000EE5CFB4F2081F4011491812F81508E3F98
:101B300060F5762C7922062D0223772049F40023C4
:101B400039F00E94930F812F0E947C0C8823E9F4C6
:101B50008091D001882339F00023B9F0812F0E94B1
:101B60005F14582E12C0772041F4002371F0812FAA
:101B700061E00E948416188308C0002331F41E3FE0
:101B800021F0888160E00E9484160894E11CF11C19
:101B90000894811C911C2196F2E1EF16F10409F0E2
:101BA000BACF0894C11CD11C82E190E0A80EB91EE6
:101BB00096E0C916D104C9F0C1010C2C02C0880FEF
:101BC000991F0A94E2F7682EC601880F991FEC014D
:101BD00023E0CC0FDD1F2A95E1F7C80FD91FCC54A5
:101BE000DC4F4501EE24FF2496CF20E030E0F901E0
:101BF000E05EFB4FD901AE5CBB4F8C9180832F5FC1
:101C00003F4F2231310599F74092F501852D8160D2
:101C1000DF91CF911F910F91FF90EF90DF90CF90C8
:101C2000BF90AF909F908F907F906F905F904F90FC
:101C30003F902F900895E5E4F4E0119284E0E13FB5
:101C4000F807D9F724E432E006C0FC01EB5BFB4F58
:101C5000808182608083F901849190E02F5F3F4F03
:101C6000009799F727E432E006C0FC01EB5BFB4FDD
:101C7000808184608083F901849190E02F5F3F4FE1
:101C8000009799F72BE432E006C0FC01EB5BFB4FB9
:101C9000808188608083F901849190E02F5F3F4FBD
:101CA000009799F72FE432E006C0FC01EB5BFB4F95
:101CB000808181608083F901849190E02F5F3F4FA4
:101CC000009799F72CE732E006C0FC01EB5BFB4F75
:101CD000808180618083F901849190E02F5F3F4F84
:101CE000009799F7E0E2F4E0119284E0E233F8071C
:101CF000D9F72BE832E040E011C084918F3F29F4FE
:101D0000842F8295807F892B0DC09F5F3196923101
:101D1000A1F74F5F2E5E3F4F463019F0F90190E07A
:101D2000ECCF80E0809344048DE090E00E945E1B45
:101D30008093F101883010F01092F1010895CF9353
:101D4000DF93DC018B30910520F08B30910579F524
:101D500017C0FC01EE0FFF1FE557FE4F0190F08109
:101D6000E02DAF55BE4F81E090E00C9002C0880F8F
:101D7000991F0A94E2F7809520812823208317C0B9
:101D8000ABE8B1E0C1EAD1E041E050E0ED91FD9176
:101D9000CA01099002C0880F991F0A94E2F7809542
:101DA00020812823208381E0A13AB80779F7DF91C9
:101DB000CF910895CF93DF93DC018B30910520F014
:101DC0008B30910569F516C0FC01EE0FFF1FE5573A
:101DD000FE4F0190F081E02DAF55BE4F81E090E0C5
:101DE0000C9002C0880F991F0A94E2F72081282BDB
:101DF000208316C0ABE8B1E0C1EAD1E041E050E099
:101E0000ED91FD919A01099002C0220F331F0A94AF
:101E1000E2F78081822B808381E0A13AB80781F7C5
:101E2000DF91CF9108951F93182F8BE090E00E94CF
:101E30009F0E112319F083E090E002C080E090E053
:101E40000E94DA0E88EE93E02CE231E0F90131973E
:101E5000F1F70197D9F78BE090E00E949F0E82E0A6
:101E600090E00E94DA0E88EE93E02CE231E0F90176
:101E70003197F1F70197D9F78BE090E00E949F0E20
:101E8000112319F080E090E002C083E090E00E940E
:101E9000DA0E88EE93E02CE231E0F9013197F1F7A8
:101EA0000197D9F78BE090E00E949F0E1F91089553
:101EB000CF93DF93C82F80FF05C080E090E00E94A1
:101EC000DA0E04C080E090E00E949F0EC1FF0FC0B8
:101ED00081E090E00E94DA0E8091F6019091F70186
:101EE000069799F487E090E00E94DA0E0EC081E038
:101EF00090E00E949F0E8091F6019091F701069765
:101F000021F487E090E00E949F0EC2FF05C082E0AE
:101F100090E00E94DA0E04C082E090E00E949F0EE2
:101F2000DF91CF910895EF92FF920F931F93CF937C
:101F3000DF93C4E0D0E000E010E06FEFE62E61E058
:101F4000F62E4FEFDE01A850BE4F8C918431B0F4D5
:101F50009E01220F331FF901ED5FFD4FF182E082F8
:101F60008F5F8C93275E3D4F849FC001112464E1F5
:101F700070E00E94071BF9017183608321960F5F57
:101F80001F4F07301105F1F6DF91CF911F910F918F
:101F9000FF90EF900895CF93DF93EB018730910589
:101FA00001F18830910548F485309105B1F0863013
:101FB0009105C8F50497D1F50CC089309105C9F099
:101FC0008930910590F08A309105B9F00B9771F541
:101FD00018C0CB010E94C60729C0CB010E94BC07D4
:101FE00025C0CB010E94C10721C0CB010E941D0763
:101FF0001DC0CB010E941A0719C0CB010E94170710
:1020000015C0CB010E94C607CE010E94BC07CE01BD
:102010000E94C107CE010E941D07CE010E941A072F
:10202000CE010E941707CE010E949F06DF91CF913B
:1020300008958730910509F18830910548F485307D
:102040009105A9F086309105A8F4049781F50CC09C
:1020500089309105C1F08930910590F08A30910561
:10206000A9F00B9721F515C00E94B30708950E94AF
:10207000A10708950E94980608950E94AA0708954E
:102080000E94100708950E94090708950E94020700
:1020900008950E94B3070E94A1070E94AA070E9408
:1020A00010070E9409070E9402070E9498060895DF
:1020B0008730910509F18830910548F48530910504
:1020C000A9F086309105A8F4049781F50CC08930F9
:1020D0009105C1F08930910590F08A309105A9F001
:1020E0000B9721F515C00E94980708950E94860756
:1020F00008950E94910608950E948F0708950E94F6
:10210000FB0608950E94F40608950E94ED060895C6
:102110000E9498070E9486070E948F070E94FB0674
:102120000E94F4060E94ED060E9491060895CF9346
:10213000DF93EC016430710534F4623071056CF4A6
:1021400077FF28C016C06630710524F0683071052D
:1021500084F403C00E94DA0E1DC0CE010E949F0EBF
:10216000CE0160E070E00E94CB0FCE010E945810BB
:1021700011C08091F20490E02BE030E0829FF001EA
:10218000839FF00D929FF00D1124EC0FFD1FEE5E6A
:10219000FE4F10828BE090E06091F2040E94661B7B
:1021A000DF91CF910895EF92FF920F931F93CF93FA
:1021B000DF938BE090E00E945E1B8093F204C0E00E
:1021C000D0E000E010E07BE0E72EF12C8091F204FB
:1021D00090E08E9DF0018F9DF00D9E9DF00D1124DD
:1021E000EC0FFD1FEE5EFE4F6081CE0170E00E949D
:1021F000971021960F5F1F4F0B30110539F7DF91B4
:10220000CF911F910F91FF90EF900895CF92DF92A1
:10221000EF92FF920F931F93CF93DF93C4E0D0E030
:1022200000E010E0F4E0EF2EF12CE822F922EBE0E0
:10223000CE2ED12C8091F204E114F10499F190E0BA
:102240008C9DF0018D9DF00D9C9DF00D1124EC0FE7
:10225000FD1FEE5EFE4FE081E33021F0E43031F00F
:10226000E13079F4CE010E94DA0E0BC0CE010E945B
:102270001910CE0160E070E00E94CB0FCE010E94E9
:102280009F0E1092F0011092EF018091F2018130C7
:1022900019F50E94D3108091F1040E94580F1092FA
:1022A000F2011AC090E08C9DF0018D9DF00D9C9D77
:1022B000F00D1124EC0FFD1FEE5EFE4FE081E330C8
:1022C00021F0E43031F0E13039F4CE010E949F0E6C
:1022D00003C0CE010E94DA0E21960F5F1F4F073018
:1022E000110509F0A7CFDF91CF911F910F91FF90BA
:1022F000EF90DF90CF9008952F923F924F925F9290
:102300006F927F928F929F92AF92BF92CF92DF9205
:10231000EF92FF920F931F93CF93DF93A4E0AA2E27
:10232000B12C6624772455245A94FFEF2F2E312C9C
:10233000E4E14E2E8091F20490E02BE030E0829FA9
:10234000F001839FF00D929FF00D1124EA0DFB1D0B
:10235000EE5EFE4FE081EE2359F0E13009F0D4C08B
:102360008091EF019091F001895E93400CF434C1AB
:102370007FE2872E72E0972E8A0C9B1CF4018081ED
:10238000882381F5F501EB58FE4FE0806501CC0C08
:10239000DD1CCC0CDD1C2BE332E0C20ED31E2E2D37
:1023A00030E040E050E0F6016081718182819381EC
:1023B0000E941A1BC501B9010E94CB0FE59C700158
:1023C00011240027F7FC0095102FF60180819181E0
:1023D000A281B3818E159F05A007B10708F47EC0C6
:1023E00021E033C08230A1F5F501E058FE4FE080D6
:1023F0006501CC0CDD1CCC0CDD1C8BE392E0C80E1F
:10240000D91E2E2D30E040E050E0F6016081718150
:10241000828193810E941A1BB101621B730BC5015B
:102420000E94CB0FE59C700111240027F7FC00955A
:10243000102FF60180819181A281B3818E159F05B5
:10244000A007B10708F44AC023E0F401208346C086
:10245000813009F5E501CC0FDD1FCC0FDD1FC55C18
:10246000DD4FF501E058FE4F8081859DC0011124AC
:10247000AA2797FDA095BA2F288139814A815B81CF
:10248000281739074A075B0748F1188219821A8210
:102490001B8222E0DACF833009F5E501CC0FDD1F86
:1024A000CC0FDD1FC55CDD4FF501EB58FE4F808181
:1024B000859DC0011124AA2797FDA095BA2F2881D8
:1024C00039814A815B81281739074A075B0730F059
:1024D000188219821A821B82F4011082C5010E949F
:1024E0005810F501EE0FFF1FEE0FFF1FE55CFD4FCB
:1024F00080819181A281B3810196A11DB11D80834C
:102500009183A283B3837FC0E23009F065C0950157
:10251000220F331FF901ED5FFD4F80819181181665
:10252000190624F40197918380834BC08901075ECB
:102530001D4FF80160817181D501AA0FBB1FAA0F41
:10254000BB1F6115710591F1ED01C55CDD4F8881FF
:102550009981AA81BB810196A11DB11D88839983B0
:10256000AA83BB83F501E058FE4F208130E040E0B4
:1025700050E082179307A407B50718F11882198253
:102580001A821B82CB010197F80191838083F501A8
:10259000E850FE4F9101281B390BC9016CE070E037
:1025A0000E94F31A842D861B80830BC0F501E8502E
:1025B000FE4F1082A55CBD4F1D921D921D921C9274
:1025C0001397F501EE0FFF1FE75EFD4F60817181EC
:1025D000C5010E94CB0F17C0C50160E070E00E94EA
:1025E000CB0FC5010E941910F501EE0FFF1FEE0F72
:1025F000FF1FE55CFD4F1082118212821382F501EC
:10260000E15DFD4F10820894A11CB11C0894611C6F
:10261000711C37E06316710409F08CCEDF91CF9105
:102620001F910F91FF90EF90DF90CF90BF90AF90F0
:102630009F908F907F906F905F904F903F902F90E2
:102640000895FC018381813261F08232D9F08230B9
:1026500081F58DEA96E090938D0380938C038BE354
:1026600008958281882319F0813019F503C08FEB1A
:1026700096E002C088ED96E090938D0380938C03E2
:1026800089E0089584819581009719F0019789F474
:1026900008C08BEE95E090938D0380938C038FE3BD
:1026A00008958AE296E090938D0380938C0383E8EB
:1026B000089580E00895FC0141E0409367022BE615
:1026C00032E030938D0320938C03808180768032BA
:1026D00099F58181813011F488E00895893061F4A1
:1026E000828193818050924029F584819581892B44
:1026F00009F5409368021EC0823019F48AE692E020
:1027000013C08A3029F4838180936A0280E008959F
:10271000833031F48381882379F41092CA010895BB
:102720008B3051F48AEC91E090938D0380938C036D
:1027300081E008958FEF089580E00895982F8156E5
:102740008A3118F4292F2D5510C0892F81548A31D0
:1027500020F4292F2D5332E009C0892F815389306D
:1027600010F020E002C0292F235130E0892F992753
:1027700087FD9095A92FB92FFC01B097EF35F10592
:10278000E0F5EA5BFF4FEE0FFF1F0590F491E02D9F
:1027900009942EE135C021E233C022E231C023E2A8
:1027A0002FC024E22DC025E22BC026E229C027E25B
:1027B00027C02CE226C02DE224C02DE221C02EE24B
:1027C00020C02EE21DC02FE21CC02FE219C020E362
:1027D00018C020E315C021E314C021E311C023E396
:1027E00010C023E30DC026E30CC026E309C027E395
:1027F00008C027E305C028E304C0222311F428E31E
:1028000032E0832F922F089527E2FBCF25E3F8CF04
:1028100025E3F7CF582FDB01642F282F392FF9013B
:1028200008C090818C91981711F081E0089531963D
:1028300011968E2F851B8617A0F380E00895EBE696
:10284000F2E0A3E7B2E090818C91981749F482E01E
:10285000E237F80711F480E0089531961196F3CF2E
:1028600081E00895DF93CF93CDB7DEB728970FB6F9
:10287000F894DEBF0FBECDBF982F80917D0384FFFB
:10288000FCCFFE01319688E0DF011D928A95E9F7C1
:1028900099836B83CF0168E00E943B0C28960FB6AA
:1028A000F894DEBF0FBECDBFCF91DF910895692FA1
:1028B0000E94321480E060E00E9432140895982F44
:1028C000865A883068F4E92FF0E0EE0FFF1FEE59CA
:1028D000FF4F808190916B02892B80936B0299C08E
:1028E000892F835B8D3108F062C083E08093F4040C
:1028F000973B19F482EE90E070C09A3B19F489EE90
:1029000090E06BC09B3B19F48AEE90E066C0933B6D
:1029100019F485EB90E061C0943B19F486EB90E0EC
:102920005CC0953B19F487EB90E057C09B3C19F4D1
:102930008CEC90E052C0963B19F48DEC90E04DC0C9
:10294000903C19F483E891E048C0913C19F48AE87E
:1029500091E043C0923C19F482E991E03EC0933C7F
:1029600019F484E991E039C0943C19F481E292E0D1
:1029700034C0953C19F483E292E02FC0963C19F4E0
:1029800084E292E02AC0973C19F485E292E025C0E7
:10299000983C19F486E292E020C0993C19F487E251
:1029A00092E01BC09A3CA1F48AE292E016C0913DED
:1029B000D0F082E08093F404913D19F481E890E036
:1029C0000CC0923D19F482E890E007C0933D19F0E5
:1029D00080E090E002C083E890E09093F60480935A
:1029E000F50484E017C08091FA04883050F08DE639
:1029F00092E061E070E046E050E00E94571B82E008
:102A000009C0E82FF0E0E559FD4F90838F5F809378
:102A1000FA0480E08160089582E08093FA0488E0FF
:102A2000EBE6F2E0DF011D928A95E9F71092F604D9
:102A30001092F50480E00895ABE6B2E0E3E7F2E03F
:102A400088E001900D928150E1F70895A3E7B2E08C
:102A5000EBE6F2E088E001900D928150E1F70895F5
:102A6000EF92FF920F931F93CF93DF931092670221
:102A70000E94F00A899A80E395E70197F1F7899817
:102A800078942DE088E190E00FB6F894A89581BD88
:102A90000FBE21BDFF24C0E0D0E0EE24E39401C0CE
:102AA000F12E80916702882339F48FE0C13AD8076C
:102AB00014F4219601C0FFCFA8950E94030B0E9439
:102AC000E90C082F8093F304882359F380916A025C
:102AD0008823C9F40E941F14882309F400E0909110
:102AE000F7048091F404981771F49091F8048091A0
:102AF000F504981741F49091F9048091F604981721
:102B000011F41092F30406B600FE0BC0E6BE10915D
:102B10006A02112331F084E08F1530F41F2D155017
:102B200001C01F2D002391F080917D0384FF0EC012
:102B30008BE692E068E00E943B0CA3E7B2E0EBE694
:102B4000F2E088E001900D928150E1F78091F3046A
:102B5000882309F4A5CF8091A80384FFA1CF109208
:102B6000F30484EF94E063E00E94360CA7EFB4E036
:102B7000E4EFF4E083E001900D928150E1F790CF13
:102B8000EF92FF920F931F93CF93DF938C01FF245B
:102B900009C0C00FD11F88810E949E13E82E0E9499
:102BA0005714F394CF2DD0E0F80101900020E9F7FD
:102BB0003197E01BF10BCE17DF0758F38E2D98E20B
:102BC0000E945714DF91CF911F910F91FF90EF90CA
:102BD0000895FC0180916802882339F0613029F45E
:102BE00080818093F1040E94580F1092680281E066
:102BF0000895282F8F3F31F410927C0281E080935A
:102C0000820208958E3F21F08D3F29F410927C02BC
:102C100010928202089580918202882351F080915F
:102C20007C02E82FF0E0E45BFC4F20838F5F809311
:102C30007C028091800290918102019668EC70E0A4
:102C40000E94071BFC019093810280938002809177
:102C50007E0290917F028E179F0759F4009719F416
:102C600087EC90E001C001979093810280938002ED
:102C70000895ED57FD4F2083089520917E023091F5
:102C80007F0280918002909181022817390711F408
:102C900080E00895C901019668EC70E00E94071B6E
:102CA000FC0190937F0280937E02ED57FD4F80815F
:102CB000089540E020917E0230917F028091800251
:102CC000909181022817390709F441E0842F089573
:102CD00010927F0210927E02109281021092800266
:102CE00010927C0210927D021092560310925703AC
:102CF0001092580310925903E0E2F4E0119284E03C
:102D0000E133F807D9F708951F93CF93DF93982FF6
:102D1000282F30E0F901E856FE4F1491662309F49C
:102D20004EC080934B03109256031092570310929B
:102D30005803109259031092FD04E901CB5BDB4F5D
:102D4000888181FF2EC0963421F0983409F065C047
:102D50000EC08FEF0E94F91580EE0E94F91582E1F6
:102D60000E94F91580EE0E94F9158CE724C08DEFC2
:102D70000E94F91581EE0E94F91584E10E94F9156F
:102D800087E70E94F91581EE0E94F91580EF0E94F5
:102D9000F91584E10E94F91580EF0E94F91587E783
:102DA00037C08FEF0E94F915888180FF03C080EE45
:102DB0000E94F915812F0E94F9158EEF29C080918C
:102DC0004B03891711F410927C02E92FF0E0EB5BC2
:102DD000FB4F808181FF13C09634F9F480EE0E948E
:102DE000F91580EF0E94F9158CE70E94F91580EE25
:102DF0000E94F91580EF0E94F91582E109C080FF59
:102E000003C080EE0E94F91580EF0E94F915812F12
:102E10000E94F9158CEF0E94F915DF91CF911F9157
:102E200008951F93162F8E3F11F08093FC040E948B
:102E30000F191093FD041F910895EF92FF920F93C5
:102E40001F938091FD04843009F4E1C0853030F493
:102E5000882371F0833009F0EAC0D7C0883009F4C4
:102E6000DBC08C3009F45DC0853009F0E0C0D2C011
:102E700020917E0230917F028091800290918102A8
:102E80002817390711F40E94E90C0E943D16182FEB
:102E90008C3F09F4CDC0882361F060E00E941117D7
:102EA0001092560310925703109258031092590330
:102EB000BFC080917C02882309F4BAC08091560378
:102EC00090915703A0915803B09159030196A11D09
:102ED000B11D8093560390935703A0935803B0936A
:102EE00059032091CB0166E9269F900111242A51B4
:102EF0003F4F442737FD4095542F82179307A4076F
:102F0000B5070CF495C01092560310925703109217
:102F100058031092590310927D028CE08093FD04B7
:102F200087C080917D02882311F40E94E90C809172
:102F30007C028823C1F020917E0230917F02809133
:102F40008002909181022817390769F48091560315
:102F500090915703A0915803B09159030197A1058F
:102F6000B10561F40FC01092FD0410925603109247
:102F70005703109258031092590359C080917D0253
:102F80008823A9F090917D02E92FF0E0E45BFC4FEB
:102F900080819F5F90937D026CE00E941117609189
:102FA0007C0280917D020E94E71A90937D02E0905E
:102FB0005603F09057030091580310915903089459
:102FC000E11CF11C011D111D6091CC017091CD011E
:102FD0008091CE019091CF012AE030E040E050E0B6
:102FE0000E94C81A9B01AC012D5F3F4F4F4F5F4FAE
:102FF000C801B7010E943C1B6093560370935703AE
:10300000809358039093590312C082E00DC08BEA5D
:1030100065E00BC083E808C00E94681680E00E944B
:10302000130F0E94D3108AEA60E00E94111710E08B
:10303000812F90E01F910F91FF90EF9008951F93C3
:103040000E941E19182F6091FD04623099F06330C0
:1030500020F4613009F06CC007C0663009F448C044
:10306000673009F065C00FC0853F09F49FC08AEF43
:1030700061E09EC00E946816112311F060E001C05B
:1030800063E08AEF95C0682F70E0CB018076907086
:10309000A5E095958795AA95E1F78093CB01AB01C3
:1030A00048715070F3E055954795FA95E1F780E047
:1030B00090E021E030E003C0220F331F0196841717
:1030C0009507D4F367707070269FC001279F900DFD
:1030D000369F900D1124AA2797FDA095BA2F8093B3
:1030E000CC019093CD01A093CE01B093CF015EC0EF
:1030F0002091F10480FF02C0246001C02B7F209347
:10310000F1042091F10481FF02C0216001C02E7FF3
:103110002093F1042091F10482FF02C0226001C0DB
:103120002D7F2093F1048091F1040E94580F3EC03E
:10313000133F41F1143F60F41E3E99F01F3E18F416
:103140001D3EA1F51CC0103FB9F0123F79F50BC030
:10315000163FD9F0173F50F11E3F59F01F3F31F590
:1031600005C08EEE25C08AEF64E022C08AEF68E0D9
:103170001FC08091FC041CC08AEF62E019C08AEF76
:1031800066E016C08AEF67E013C081E08093CB0150
:1031900085E090E0A0E0B0E08093CC019093CD0179
:1031A000A093CE01B093CF010E9468168AEF60E031
:1031B0000E94111780E090E01F910895CF93DF9354
:1031C00088E08093FD04F8940E94361A2EE088E18E
:1031D00090E00FB6F894A89581BD0FBE21BD7894FC
:1031E000C0E0D0E0A8958091FF0482FF10C0CC3FE2
:1031F000D10559F020917E0230917F0280918002AA
:10320000909181022817390711F40E941F188091AC
:10321000FF0484FFE7CF0E941D17EC01E3CF8093EA
:103220005B03F8948091FF048F7E8093FF0480916C
:10323000FF0488608093FF0478940895F894809147
:10324000FF048B7F8093FF04789480915A03089544
:103250008FEC84BD8091FE04833000F58998919AAB
:103260008091FF0480FF23C0809BA3C08091FE0457
:10327000813031F0813040F0823009F0F6C006C074
:10328000819902C08DE096C082E094C08091FF04D5
:1032900083FFEBC09198899A84E28CC08091FE04F0
:1032A0008A3108F079C08091FF0480FD08C08091C8
:1032B000FF0481608093FF048898909A0895809B12
:1032C00076C08091FE04873140F4803118F58D304E
:1032D00061F08F3009F055C00CC08831E1F18831C0
:1032E00058F1893109F04DC049C08091FF048D7FAC
:1032F0004DC08091FF048B7F8093FF04819B05C0AC
:1033000080E880935A0381E014C010925D0310920C
:103310005A0337C080915A03869580935A03819B44
:1033200030C080915A03806880935A0380915D0376
:103330008F5F80935D0325C0819B05C080915D03F5
:103340008F5F80935D0380915D0380FD1AC0809143
:10335000FF04826010C0819905C08091FF048260E3
:103360008093FF048091FF0481FD0BC09198899A9E
:103370008091FF0484608093FF0403C08998919A30
:103380006CC09098889A8091FF048E7F8093FF0490
:103390008091FE048F5F0EC08091FE048F3208F092
:1033A00064C08091FF0480FF10C0809906C0899896
:1033B000919A81E08093FE0408958091FF048E7FAE
:1033C0008093FF049098889A08958091FF0481600B
:1033D0008093FF048898909A8091FE048C3228F4A0
:1033E000853280F48432E1F507C08D3299F18D3257
:1033F000E8F08E32A9F531C080915B0380935C03C5
:1034000010925D0380915C0380FF08C08998919AB7
:1034100080915D038F5F80935D0302C09198899ACC
:1034200080915C03869580935C031AC080915D0354
:1034300080FF03C09198899A02C08998919A8091DF
:10344000FF04877F8093FF048091FF048061809355
:10345000FF0406C08998919A03C01092FE04089553
:103460008091FE048F5F8093FE0408951092FE0405
:1034700081E18093FF048898909A8998919A0E949C
:10348000110582E00E94630587E068E279E10E940D
:10349000A4058FEC84BD08950895882329F0969A99
:1034A0008E988F9A979808958E9A9698979A8F9853
:1034B00008958FEF8BBB85BB80936200809365007E
:1034C0001ABA14BA10926100109264008FE088BB9F
:1034D00080EF87BB87EC83B988E382B980E482BB45
:1034E0008CEB81BB80E090E0089584E08ABB8BEF99
:1034F0008BBB88E28A95F1F78091630083B390B12A
:10350000809585FF07C08CE090E061E00E94661B1B
:1035100081E00895892F809580FF07C08CE090E0BE
:1035200060E00E94661B80E008958CE090E00E94BD
:103530005E1B08950E94591A0E94751A8093D0014B
:103540000E944D1A0E94270588E090E00E947C06A8
:1035500088E00E94A10688E00E9422070E941B0EBC
:103560008091D001882341F081E00E94130F0E94D6
:10357000D3100E94301509C00E944A0580E00E94C5
:10358000130F0E94D3100E94DE1880E090E008958F
:10359000629FD001739FF001829FE00DF11D649F37
:1035A000E00DF11D929FF00D839FF00D749FF00DC3
:1035B000659FF00D9927729FB00DE11DF91F639F64
:1035C000B00DE11DF91FBD01CF0111240895991B14
:1035D00079E004C0991F961708F0961B881F7A950A
:1035E000C9F780950895AA1BBB1B51E107C0AA1F0C
:1035F000BB1FA617B70710F0A61BB70B881F991F94
:103600005A95A9F780959095BC01CD01089597FB37
:10361000092E07260AD077FD04D0E5DF06D000206A
:103620001AF4709561957F4F0895F6F790958195FE
:103630009F4F0895A1E21A2EAA1BBB1BFD010DC0CE
:10364000AA1FBB1FEE1FFF1FA217B307E407F50752
:1036500020F0A21BB30BE40BF50B661F771F881F2E
:10366000991F1A9469F760957095809590959B01C4
:10367000AC01BD01CF01089597FB092E05260ED0A0
:1036800057FD04D0D7DF0AD0001C38F45095409580
:10369000309521953F4F4F4F5F4F0895F6F7909526
:1036A0008095709561957F4F8F4F9F4F0895DC01F6
:1036B00001C06D9341505040E0F70895E199FECF6D
:1036C0009FBB8EBBE09A99278DB30895262FE19971
:1036D000FECF9FBB8EBB2DBB0FB6F894E29AE19A4A
:0A36E0000FBE01960895F894FFCF85
:1036EA005AFF00E800E900EA00EB00EC00ED00EE0A
:1036FA0000EF05050505050505050505050505058B
:10370A000500000000000000050505050101010192
:10371A000101010505050502020202020202050570
:10372A00050507050707070707050505050707052F
:10373A00070707070505050507070707050707051B
:10374A000505050707070707050505050505070711
:10375A000705070707000000000A0A0A0A0A0A0AF8
:10376A00000000000404040404040432003200329D
:10377A0000320023002300380023003800380038C4
:10378A0000030405020503040407060500000100FE
:10379A000200040008001000200040008000686554
:1037AA006C6C6F20776F726C640001020500000078
:0237BA0001000C
:00000001FF
